:100000000C9476010C949E010C949E010C949E011C
:100010000C949E010C949E010C949E010C949E01E4
:100020000C949E010C949E010C94DB1C0C94A71B59
:100030000C949E010C949E010C949E010C949E01C4
:100040000C949E010C949E010C949E010C949E01B4
:100050000C941E090C949E010C949E010C9479142E
:100060000C949E010C94FC160C942E170C949E017B
:100070000C949E010C949E010C949E010C949E0184
:100080000C949E010C949E010C949E010C949E0174
:100090000C949E010C949E010C949E010C949E0164
:1000A0000C949E010C949E010C949E0188158B1556
:1000B0007A157E158415AC15AC15AC158F159315F6
:1000C00097159D15A115AC15A71500000002000994
:1000D0000F0000030401000C0000000000000000FD
:1000E00000000000000000000408020110408040F1
:1000F000102040804080080204018040201002014E
:10010000108010204040040404040403040502028B
:1001100002020403020202020606060606060404A0
:100120000202020400000000250028002B002E001F
:10013000310000000000240027002A002D003000BC
:10014000080B000202020100090400000102020083
:100150000005240010010524010101042402060504
:100160002406000107058103100040090401000274
:100170000A00000007050202400000070583024054
:10018000000000C18081C112010002020000404154
:10019000233680000101020001120100020000006C
:1001A00040412336800001010200014172647569FB
:1001B0006E6F204C4C430041726475696E6F204C29
:1001C000656F6E6172646F00040309040000000033
:1001D000000000002A2B28000000000000000000A2
:1001E0000000000000000000000000002C9EB4A0F1
:1001F000A1A2A434A6A7A5AE362D3738271E1F20EE
:10020000212223242526B333B62EB7B89F848586B2
:100210008788898A8B8C8D8E8F90919293949596F6
:100220009798999A9B9C9D2F3130A3AD3504050674
:100230000708090A0B0C0D0E0F10111213141516D6
:100240001718191A1B1C1DAFB1B0B5000904020024
:1002500001030000000921010100012265000705DA
:10026000840340000105010902A1010901A10085E3
:10027000010509190129031500250195037501815F
:100280000295017505810305010930093109381509
:1002900081257F750895038106C0C005010906A167
:1002A000018502050719E029E7150025017501956B
:1002B00008810295017508810395067508150025CA
:1002C000650507190029658100C022051109130A77
:1002D000190B1E0E370EAE124D1455145C14631418
:1002E0006E14DF165E17E717ED1F511411241FBEA1
:1002F000CFEFDAE0DEBFCDBF14E0A0E0B1E0E4EA8A
:10030000F8E402C005900D92AC30B107D9F728E0AF
:10031000ACE0B4E001C01D92AF36B207E1F712E0E5
:10032000CAEED2E004C02297FE010E946F21CA3CAF
:10033000D107C9F70E94F7170C9445240C940000CC
:1003400008958DE094E00C947A0FCF92DF92EF92B3
:10035000FF926B017C01BA0182E697E00E944C1883
:1003600068E171E082E697E00E945A182AE030E0E6
:10037000B701A60182E697E0FF90EF90DF90CF9063
:100380000C94341968E371E082E697E00E945A18F1
:100390008CE094E00E943D0BAB01BC012AE030E010
:1003A00082E697E00C94341969E471E082E697E004
:1003B0000E945A188CE094E00E945C0BAB01BC01D7
:1003C0002AE030E082E697E00C94341960E171E0B5
:1003D00082E697E00E945A188CE094E00E947B0B22
:1003E0004AE050E0BC0182E697E00C941C196BE1F6
:1003F00071E082E697E00E945A188CE094E00E9437
:10040000950B4AE050E0BC0182E697E00C941C1981
:1004100066E271E082E697E00E945A188CE094E070
:100420000E94AF0B4AE050E0BC0182E697E00C94DA
:100430001C1962E371E082E697E00E945A188CE092
:1004400094E00E94CC0BAB01BC012AE030E082E6D4
:1004500097E00C94341963E471E082E697E00E941F
:100460005A188CE094E00E94EB0BAB01BC012AE02F
:1004700030E082E697E00C9434190E94C2010E9499
:10048000D4010E94E6010E94F7010E9408020E9426
:1004900019020C942B0262E571E082E697E00E945B
:1004A00067186DE671E082E697E00E9467186AE9D6
:1004B00071E082E697E00E94671861ED71E082E6E4
:1004C00097E00E94671867E072E082E697E00E947A
:1004D000671867E472E082E697E00E94671869E7B0
:1004E00072E082E697E00E94671867EC72E082E6AD
:1004F00097E00E94671864E073E082E697E00E944C
:10050000671860E473E082E697E00E9467180C9435
:100510003D026FE473E082E697E00E9467180C9456
:100520004B020C944B02EF92FF920F931F936217B2
:100530007307840795072CF0E616F70608071907D6
:100540004CF46AE973E082E697E00E94671880E065
:1005500090E002C081E090E01F910F91FF90EF903A
:1005600008958F929F92AF92BF92EF92FF920F9356
:100570001F93CF93DF9300D000D000D0CDB7DEB76C
:100580008DE094E00E948F104B015C0110E8E12E99
:100590001BEBF12E00E010E02AE030E040E050E0FC
:1005A000C501B4010E949302892BB9F0B501A401E1
:1005B0008CE094E00E94360B67E873E0CE01019670
:1005C0000E94BD1DAE014F5F5F4FC501B4010E9487
:1005D000A501CE0101960E944F1D26960FB6F894F4
:1005E000DEBF0FBECDBFDF91CF911F910F91FF9066
:1005F000EF90BF90AF909F908F9008958F929F92B1
:10060000AF92BF92EF92FF920F931F93CF93DF931E
:1006100000D000D000D0CDB7DEB78DE094E00E94CE
:100620008F104B015C01E12C1DE7F12E00E010E082
:1006300021E030E040E050E0C501B4010E949302A7
:10064000892BB9F0B501A4018CE094E00E94550B10
:1006500064E973E0CE0101960E94BD1DAE014F5FBB
:100660005F4FC501B4010E94A501CE0101960E9411
:100670004F1D26960FB6F894DEBF0FBECDBFDF919B
:10068000CF911F910F91FF90EF90BF90AF909F90EF
:100690008F9008958F929F92AF92BF92CF92DF92E8
:1006A000EF92FF920F931F93CF93DF9300D000D070
:1006B00000D0CDB7DEB78DE094E00E945C0F6C01F6
:1006C0004C01AA2497FCA094BA2CE12CF12C8701B0
:1006D000E39420E030E0A901C501B4010E94930237
:1006E000892BB1F0B6018CE094E00E94740B68E6AF
:1006F00073E0CE0101960E94BD1DAE014F5F5F4FBA
:10070000C501B4010E94A501CE0101960E944F1DB2
:1007100026960FB6F894DEBF0FBECDBFDF91CF9106
:100720001F910F91FF90EF90DF90CF90BF90AF900F
:100730009F908F9008958F929F92AF92BF92CF9289
:10074000DF92EF92FF920F931F93CF93DF9300D02E
:1007500000D000D0CDB7DEB78DE094E00E945C0FF2
:100760006C014C01AA2497FCA094BA2C12E5E12E4E
:10077000F12C00E010E021E030E040E050E0C50165
:10078000B4010E949302892BB1F0B6018CE094E091
:100790000E948E0B60E773E0CE0101960E94BD1DA2
:1007A000AE014F5F5F4FC501B4010E94A501CE01AC
:1007B00001960E944F1D26960FB6F894DEBF0FBE1D
:1007C000CDBFDF91CF911F910F91FF90EF90DF9000
:1007D000CF90BF90AF909F908F9008958F929F92EF
:1007E000AF92BF92CF92DF92EF92FF920F931F933F
:1007F000CF93DF9300D000D000D0CDB7DEB78DE02F
:1008000094E00E945C0F6C014C01AA2497FCA09418
:10081000BA2C13E0E12EF12C00E010E020E030E0F3
:10082000A901C501B4010E949302892BB1F0B60160
:100830008CE094E00E94A80B68E773E0CE0101967B
:100840000E94BD1DAE014F5F5F4FC501B4010E9404
:10085000A501CE0101960E944F1D26960FB6F89471
:10086000DEBF0FBECDBFDF91CF911F910F91FF90E3
:10087000EF90DF90CF90BF90AF909F908F900895B2
:100880008F929F92AF92BF92EF92FF920F931F931E
:10089000CF93DF9300D000D000D0CDB7DEB78DE08E
:1008A00094E00E948F104B015C0110E8E12E1BEBDD
:1008B000F12E00E010E02AE030E040E050E00E943D
:1008C0009302892BB9F0B501A4018CE094E00E9459
:1008D000C50B61E873E0CE0101960E94BD1DAE011B
:1008E0004F5F5F4FC501B4010E94A501CE01019683
:1008F0000E944F1D26960FB6F894DEBF0FBECDBFE7
:10090000DF91CF911F910F91FF90EF90BF90AF902B
:100910009F908F9008958F929F92AF92BF92EF9287
:10092000FF920F931F93CF93DF9300D000D000D09E
:10093000CDB7DEB78DE094E00E948F104B015C01D3
:10094000E12C1DE7F12E00E010E021E030E040E076
:1009500050E0C501B4010E949302892BB9F0B501A2
:10096000A4018CE094E00E94E40B6EE873E0CE01F9
:1009700001960E94BD1DAE014F5F5F4FC501B401DE
:100980000E94A501CE0101960E944F1D26960FB62A
:10099000F894DEBF0FBECDBFDF91CF911F910F91B5
:1009A000FF90EF90BF90AF909F908F90089569E86F
:1009B00072E08DE094E00E94790E41E952E060E03F
:1009C0008DE094E00E947F0E41EB52E061E08DE00B
:1009D00094E00E947F0E4EEF52E062E08DE094E0E2
:1009E0000E947F0E4AE453E063E08DE094E00E94B1
:1009F0007F0E4BE953E064E08DE094E00E947F0EAF
:100A00004EEE53E065E08DE094E00E947F0E40E4FE
:100A100054E067E08DE094E00E947F0E4BE854E0E4
:100A200068E08DE094E00C947F0ECF93DF93EC01AF
:100A300061E08DE094E00E94760ECE01DF91CF91CF
:100A40000C94D7040F930FE22BE34CE262E677E0BD
:100A50008DE094E00E94710E8CE094E00F910C9474
:100A6000350BCF92DF92EF92FF920F931F93CF93AC
:100A7000DF937C016A01811524E09207B0F4840FB2
:100A8000951F8115944088F4EB0100E010E00C15EF
:100A90001D054CF46991C8018E0D9F1D0E94002414
:100AA0000F5F1F4FF4CF81E001C080E0DF91CF9155
:100AB0001F910F91FF90EF90DF90CF900895CF920C
:100AC000DF92EF92FF920F931F93CF93DF938B01EF
:100AD0007A01811524E09207C8F49C01240F351F88
:100AE0002115344098F4EB016C01C61AD70ACE01E7
:100AF000801B910B8E159F053CF4C6018C0F9D1F2A
:100B00000E94F8238993F3CF81E001C080E0DF9158
:100B1000CF911F910F91FF90EF90DF90CF900895AC
:100B2000CF93DF9300D000D0CDB7DEB749835A838F
:100B30006B837C8344E050E0BE016F5F7F4F0E9477
:100B400031050F900F900F900F90DF91CF91089586
:100B5000CF93DF9300D0CDB7DEB77A83698342E0CD
:100B600050E0BE016F5F7F4F0E9431050F900F90E4
:100B7000DF91CF91089544E050E00C945F0542E08E
:100B800050E00C945F058091C90608958093C906D2
:100B900008955E9A5E980895479A08954798089533
:100BA0005B9808955B9A0895FC0181E0808311822F
:100BB0001282138214821582168217821086118681
:100BC000128613861486158A168A178A108E158E39
:100BD000168E178E10A215A216A217A210A611A685
:100BE00012A613A614A615A616A617A610AA11AA31
:100BF00012AA13AA14AA41E050E060E070E045ABED
:100C000056AB67AB70AF0895EF92FF920F931F93AF
:100C1000CF93DF9300D000D0CDB7DEB77C01FC01CD
:100C200005A516A527A530A9401751076207730728
:100C300099F015AA16AA17AA10AE49835A836B8396
:100C40007C830E94D205F70111AA12AA13AA14AA42
:100C50007C816B815A814981F70145A756A767A717
:100C600070AB0F900F900F900F90DF91CF911F916D
:100C70000F91FF90EF900895FC0141A752A763A741
:100C800074A745A356A367A370A745A756A767A750
:100C900070AB08950F931F93CF93DF93EC01423015
:100CA000510529F429A13AA14BA15CA104C02981D5
:100CB0003A814B815C81DB010E947E210E942D20C4
:100CC0002AE037ED43E25CE30E94B9200E94FA1F5C
:100CD000161617061806190624F061E070E080E089
:100CE00090E00091CA061091CB062091CC0630917D
:100CF000CD06AB01BC01041715072607370714F40E
:100D0000B901A8014D835E836F837887DF91CF910E
:100D10001F910F910895CF93DF93EC01CA019B01BE
:100D2000442737FD4095542F029729F469897A8921
:100D30008B899C8904C06D857E858F8598890E94EA
:100D40001C210E942D202AE037ED43E25CE30E9443
:100D5000B9200E94FA1F161617061806190624F065
:100D600061E070E080E090E069877A878B879C87FC
:100D7000DB01992788273FE0B595A795979587953B
:100D80003A95D1F78D8B9E8BAF8BB88FDF91CF913A
:100D900008956F927F928F929F92AF92BF92CF925F
:100DA000DF92EF92FF920F931F93CF93DF93CDB714
:100DB000DEB73C01FC01458756876787708B01834E
:100DC000128323833483C18AD28AE38AF48A81A27C
:100DD00092A2A3A2B4A2DA01992788271FE0B595B1
:100DE000A795979587951A95D1F7818F928FA38FA5
:100DF000B48F40E050E064E670E0C3010E948B06CF
:100E000040E050E064E670E0C301DF91CF911F91B4
:100E10000F91FF90EF90DF90CF90BF90AF909F9099
:100E20008F907F906F900C944A06FC01658D768DB3
:100E3000878D90A19B01AC010E941C2166277078D0
:100E4000258936894789508D0E944E21CA01B901F2
:100E500008950F931F93FC0101A512A523A534A5A6
:100E600045A556A567A570A90417150726073707D6
:100E700029F011AA12AA13AA14AA29C045A956A991
:100E800067A970AD452B462B472B19F541A952A9EF
:100E900063A974A9413385E75807610571057CF0A2
:100EA00041E050E060E070E045AB56AB67AB70AF3F
:100EB00011AA12AA13AA14AA0E94D0050AC04F5F51
:100EC0005F4F6F4F7F4F41AB52AB63AB74AB80E072
:100ED00001C081E01F910F9108952F923F924F9290
:100EE0005F926F927F928F929F92AF92BF92CF92BA
:100EF000DF92EF92FF920F931F93CF93DF93CDB7C3
:100F0000DEB728970FB6F894DEBF0FBECDBF1C0129
:100F10000E94290781116CC1D1019D96CD90DD9071
:100F2000ED90FC90D09795968D909D90AD90BC9053
:100F30009897A7019601281939094A095B0957FFB3
:100F400007C050954095309521953F4F4F4F5F4FCB
:100F5000F1018081458C568C678C70A049825A8241
:100F60006B827C8241A452A463A474A48823B1F050
:100F7000C814D904EA04FB044CF1C1012D833E835B
:100F80004F8358870E9415072D813E814F815885D8
:100F90006217730784079507CCF47BC08C149D04FB
:100FA000AE04BF040CF495C0C1012D833E834F8372
:100FB00058870E9415072D813E814F815885621701
:100FC0007307840795070CF084C0E9C0F1014185DF
:100FD00052856385748589819A81AB81BC81841B2C
:100FE000950BA60BB70BAC01BD01D1015D964D93DE
:100FF0005D936D937C939097F101458D568D678D30
:1010000070A1480D591D6A1D7B1D45A356A367A3FA
:1010100070A74416550666067706BCF44C145D04AA
:101020006E047F0491F04091CA065091CB06609106
:10103000CC067091CD06440D551D661D771D41A748
:1010400052A763A774A70E94C905D1015D964D916F
:101050005D916D917C91909777FFCAC01C92289604
:101060000FB6F894DEBF0FBECDBFDF91CF911F91B9
:101070000F91FF90EF90DF90CF90BF90AF909F9037
:101080008F907F906F905F904F903F902F900C9437
:10109000CE058C149D04AE04BF040CF0ADCFF1015D
:1010A0004185528563857485058116812781308548
:1010B00089819A81AB81BC81480F591F6A1F7B1FB0
:1010C00004171507260737070CF08FCFB901A801C1
:1010D0008CCFF101418552856385748589819A8120
:1010E000AB81BC81480F591F6A1F7B1FD1015D96E0
:1010F0004D935D936D937C939097F101458D568D43
:10110000678D70A1480D591D6A1D7B1D45A356A30F
:1011100067A370A74415550566057705BCF44C1404
:101120005D046E047F0491F04091CA065091CB0695
:101130006091CC067091CD06441A550A660A770A6A
:1011400041A652A663A674A60E94C905D1015D9668
:101150004D915D916D917C91909714161506160630
:1011600017060CF045C081E08C9328960FB6F894D2
:10117000DEBF0FBECDBFDF91CF911F910F91FF90CA
:10118000EF90DF90CF90BF90AF909F908F907F9027
:101190006F905F904F903F902F900C94CC05C814A7
:1011A000D904EA04FB040CF0A8CFF1014185528573
:1011B000638574850581168127813085309520955A
:1011C000109501951F4F2F4F3F4F89819A81AB8119
:1011D000BC81841B950BA60BB70BAC01BD0180171E
:1011E0009107A207B3070CF081CFB901A8017ECF08
:1011F00028960FB6F894DEBF0FBECDBFDF91CF911A
:101200001F910F91FF90EF90DF90CF90BF90AF9024
:101210009F908F907F906F905F904F903F902F9016
:10122000089580E090E8A0E0B0E08093CA06909333
:10123000CB06A093CC06B093CD0608951F920F92D3
:101240000FB60F9211242F933F934F935F936F9399
:101250007F938F939F93AF93BF93EF93FF93E0910F
:10126000D106F091D2060995FF91EF91BF91AF9110
:101270009F918F917F916F915F914F913F912F91AE
:101280000F900FBE0F901F901895CF93DF9300D053
:101290001F92CDB7DEB7CE0103960E94350B80E2D8
:1012A00089831A82CE0103960E94AF0B843048F4E2
:1012B000FC01FF27EA55FC4F9981987F8081892B9B
:1012C0008983CE0103960E94C20B833048F4FC014F
:1012D000FF27E655FC4F9981977D8081892B898373
:1012E000CE0103960E94950B9FEF980F923510F454
:1012F00080932107CE0103960E947B0B811103C0CE
:10130000899A889802C0889A899821E0AE014F5F37
:101310005F4F66E08EE197E00E94A10D0F900F9065
:101320000F90DF91CF910895CF93DF93EC0141E0CF
:1013300050E060E070E0488359836A837B831C82BD
:101340001D821E8285E297E09093240780932307F5
:101350008EE197E00E94B40C60EA73E08EE197E0C2
:101360000E94D00D87E080932207CE010E9445099C
:101370008EE197E0DF91CF910C94F90DCF93DF933D
:10138000EC018EE197E00E94120ECE010E94450909
:101390008EE197E0DF91CF910C94F90DCF93DF931D
:1013A000EC018EE197E00E948F0D8823A1F0BE0131
:1013B0008EE197E00E941A0D488159816A817B81F4
:1013C0008FE0440F551F661F771F8A95D1F748831A
:1013D00059836A837B83DF91CF910895FC016081FB
:1013E0007181828193810895FC01268121502230F0
:1013F00028F48481992787FD9095089584E690E0EC
:101400000895FC012681223029F48581992787FDE2
:101410009095089584E690E00895FC0186819927CF
:1014200087FD9095089580E090E8A0E0B0E080937B
:10143000D3069093D406A093D506B093D60608950C
:1014400087ED96E00C946D074F925F926F927F92BA
:101450008F929F92AF92BF92CF92DF92EF92FF92C4
:101460000F931F93CF93DF9300D000D0CDB7DEB79B
:1014700087E197E00E945C0B2B013C0187E197E03C
:101480000E943D0B69837A838B839C8387E197E07D
:101490000E94CC0B4B015C0187E197E00E94EB0BB3
:1014A0006B017C0109811A812B813C81B301A2016E
:1014B00087ED96E00E94C90680E197E00F900F90BB
:1014C0000F900F90DF91CF911F910F91FF90EF90B0
:1014D000DF90CF90BF90AF909F908F907F906F9054
:1014E0005F904F900C94BE0940E855E260E070E0D8
:1014F00082E697E00E94D916539A579A529A259AF3
:10150000569A3F9A809A819A5B9A5F98889A8898AF
:101510005A9A2D9A88E197E00E9415050E94240AA4
:101520006AEF70E080E090E00E94F21480E197E0C2
:101530000E94EE09613071058105910549F480E151
:1015400097E00E94CE0988E197E00E94A101EECFCA
:1015500080E197E00E94EE09AB01BC0187ED96E0C7
:101560000E943C0680E1809381001092800082E11D
:101570009AE7909387008093860084E180938100AE
:1015800021E02093CE0680E395E09093D0068093EF
:10159000CF06909387008093860081E1809381003D
:1015A00080E29AE09093D2068093D10620936F0058
:1015B0000895CF93DF9380E197E00E94CE0980E108
:1015C00097E00E94EE09AB01BC0187ED96E00E9416
:1015D000040680E197E00E940D0AEC0180E197E0AB
:1015E0000E94F409AE01BC0187ED96E00E944A0614
:1015F00080E197E00E940D0AEC0180E197E00E94F3
:10160000010AAE01BC0187ED96E00E948B0688E1DD
:1016100097E00E94A1010E94C305882339F080E071
:101620000E94C605DF91CF910C94240ADF91CF91DF
:10163000089580E090E8A0E0B0E0809319079093CF
:101640001A07A0931B07B0931C0788E197E00E943C
:10165000A00187E197E00E94350B80E197E00E94AE
:10166000940987ED96E00C94D405089580E090E00D
:101670000E94900581E00C94C605CF93DF9300D0C3
:1016800000D0CDB7DEB7BE016F5F7F4F80E090E046
:101690000E94BB0569817A818B819C810F900F909C
:1016A0000F900F90DF91CF91089584E090E00E9419
:1016B000900581E00C94C605CF93DF9300D000D055
:1016C000CDB7DEB7BE016F5F7F4F84E090E00E9430
:1016D000BB0569817A818B819C810F900F900F905F
:1016E0000F90DF91CF9108958AE090E00E94A805C5
:1016F00081E00C94C605CF93DF9300D0CDB7DEB761
:10170000BE016F5F7F4F8AE090E00E94BF05898134
:101710009A810F900F90DF91CF9108958CE090E027
:101720000E94A80581E00C94C605CF93DF9300D0FA
:10173000CDB7DEB7BE016F5F7F4F8CE090E00E94B7
:10174000BF0589819A810F900F90DF91CF91089505
:101750008EE090E00E94A80581E00C94C605CF932E
:10176000DF9300D0CDB7DEB7BE016F5F7F4F8EE055
:1017700090E00E94BF0589819A810F900F90DF91C0
:10178000CF91089580E090E0089582E190E00E947A
:10179000900581E00C94C605CF93DF9300D000D074
:1017A000CDB7DEB7BE016F5F7F4F82E190E00E9450
:1017B000BB0569817A818B819C810F900F900F907E
:1017C0000F90DF91CF91089586E190E00E949005FF
:1017D00081E00C94C605CF93DF9300D000D0CDB745
:1017E000DEB7BE016F5F7F4F86E190E00E94BB05D0
:1017F00069817A818B819C810F900F900F900F905F
:10180000DF91CF910895CF93CFB7F89480911D07C2
:10181000811127C0E7E1F1E08491E9EFF0E09491D4
:10182000E82FF0E0EE0FFF1FEE5CFE4FA591B491A4
:101830008C91892321F461E081E10E94E61561E049
:1018400081E10E94AD158CB580618CBD8CB5806442
:101850008CBD61E08FE00E94AD1561E080E10E94E7
:10186000AD1580911D078F5F80931D07CFBFCF916E
:101870000895FC0188E0818387E0828381E083838F
:1018800080E18483168215820895AF92BF92DF9221
:10189000EF92FF920F931F93CF93DF931F92CDB7D9
:1018A000DEB77C01D62E8A015B018A2D8D19821745
:1018B000A8F4D70115968D919C911697F501619129
:1018C0005F01DC01ED91FC910190F081E02D298315
:1018D0000995F80181938F012981E7CF0F90DF915E
:1018E000CF911F910F91FF90EF90DF90BF90AF903D
:1018F0000895CF92DF92FF920F931F93CF93DF93C0
:101900001F92CDB7DEB78C01F62E6B018C2D8F198F
:10191000841790F4D80115968D919C911697F60135
:1019200061916F01DC01ED91FC910190F081E02D5E
:10193000498309954981EACF0F90DF91CF911F919B
:101940000F91FF90DF90CF90089561E0FC018181BD
:101950000C94E61560E0FC0181810C94E61561E0D1
:10196000FC0182810C94E615CF93DF93EC0161E0DA
:1019700089810E94AD1561E08A810E94AD15CE017A
:101980000E94AA0CCE010E94AF0C8D819E81DC01C9
:10199000ED91FC910280F381E02DDF91CF910994CC
:1019A00060E0FC0182810C94E6150F931F93CF93A6
:1019B000DF9300D0CDB7DEB78C014A8369830E94E4
:1019C000D00CD80115968D919C911697DC01ED9164
:1019D000FC9169816F7160620190F081E02D099541
:1019E000F80185819681DC01ED91FC910190F081F7
:1019F000E02D4A81642F0995C8010F900F90DF9167
:101A0000CF911F910F910C94AF0CCF93DF93EC010A
:101A100018820E94AA0C4BE060E0CE010E94D50C17
:101A2000CE010E94A50C40E367E0CE01DF91CF918B
:101A30000C94D50C0F931F93CF93DF93EC018B0184
:101A40000E94D00C8D819E81DC01ED91FC91019072
:101A5000F081E02D61E609952C81A801B801CE0145
:101A60000E94450CCE010E94AF0C40E467E0CE011D
:101A7000DF91CF911F910F910C94D50CEF92FF92B3
:101A80000F931F93CF93DF9300D0CDB7DEB77C01C8
:101A90008A012A8369830E94D00CD70115968D9103
:101AA0009C911697DC01ED91FC9169816F71019019
:101AB000F081E02D09952A81A801B801C7010E9493
:101AC000450CC7010F900F90DF91CF911F910F919F
:101AD000FF90EF900C94AF0CCF93DF931F92CDB794
:101AE000DEB721E0AE014F5F5F4F67E10E943E0D20
:101AF000898181700F90DF91CF910895CF93DF930B
:101B00001F92CDB7DEB721E0AE014F5F5F4F67E0B8
:101B10000E943E0D89810F90DF91CF910895CF9360
:101B2000DF93EC010E947E0D86FD06C0CE010E946F
:101B30006C0D91E0982701C091E0892FDF91CF9142
:101B40000895EF92FF920F931F93CF93DF9300D0EE
:101B5000CDB7DEB77C018A012A8369830E94D00C4D
:101B6000D70115968D919C911697DC01ED91FC9112
:101B700069816F7160620190F081E02D09952A8181
:101B8000422FB801C7010E94790CC7010F900F9036
:101B9000DF91CF911F910F91FF90EF900C94AF0CBC
:101BA0000F931F93CF93DF93EC018B010E94AA0C3C
:101BB00025E0A8016BE0CE010E94A10DCE01DF91CE
:101BC000CF911F910F910C94A50CCF93DF93EC0153
:101BD0000E94D00C8D819E81DC01ED91FC910190E1
:101BE000F081E02D62EE0995CE01DF91CF910C944A
:101BF000AF0CCF93DF93EC014B8165E00E94D50CD5
:101C00004C8161E1CE010E94D50C4C8162E1CE0194
:101C10000E94D50CCE010E94050DCE01DF91CF911F
:101C20000C94E50DCF93DF93EC010E94AA0C48E0E1
:101C300060E0CE01DF91CF910C94D50C8EE197E05E
:101C40000C94390C6EBD00000DB407FEFDCF8EB5AF
:101C5000089508950E94030C8CB5837F8CBD8CB5CC
:101C60008C7F81608CBD8DB58E7F8DBD089581EB9D
:101C700093E0909326078093250708950F93FC0126
:101C8000DC01AA5ABD4F11961C921E92159711960F
:101C90007C936E93108613964C9311972C93129607
:101CA0000C9380E483838FE38483128219971196C7
:101CB0001C921E92129611961C921E92149781E00D
:101CC0008C9380E090E0DF01A80FB91FA85ABD4FA8
:101CD0001D921C92029684369105A9F717820F91E6
:101CE00008950F930E943E0E0F910895FC016087A6
:101CF00008958A5A9D4FFC01718360830895623371
:101D000048F4FC01E60FF11DE60FF11DE85AFD4F06
:101D1000518340830895F90121E03081341320E09C
:101D2000DB013C913083DC01AB5ABD4F8C91381301
:101D300002C021111082822F08956F927F928F929C
:101D40009F92AF92BF92CF92DF92EF92FF920F934A
:101D50001F93CF93DF93EC017B011D828B013C012C
:101D600085E0680E711C5E01EBEAAE1AEDEFBE0A6B
:101D70004E01FCEA8F1AFDEF9F0A6801CE18DF08BA
:101D80009301F5014081B801CE010E948B0EF8014C
:101D900091918F01911102C0882331F0F4012081CB
:101DA0009213EBCF8111E9CFC601DF91CF911F9143
:101DB0000F91FF90EF90DF90CF90BF90AF909F90EA
:101DC0008F907F906F900895BF92CF92DF92EF92A5
:101DD000FF920F931F93CF93DF936C01B42E790181
:101DE0006115710519F4D9016D917C918B01E801A0
:101DF0004B2DB801C6010E949D0E892B29F40F5F5F
:101E00001F4F88818111F3CF8881882391F04B2D5A
:101E1000BE01C6010E949D0EFE01E80FF91F8081E0
:101E2000882311F010823196D701ED93FC93CE01F7
:101E300002C080E090E0DF91CF911F910F91FF9061
:101E4000EF90DF90CF90BF9008950F931F93CF93A3
:101E5000DF93FC01E75BFD4F2081222339F1213024
:101E600031F4BC01675F7F4F22E0208302C060E055
:101E700070E0EC01C65BDD4F28818C01045B1D4FD7
:101E8000222361F09C01225B3D4FFC01EC5AFD4F87
:101E900040810E94E40EF80191838083F8018081E3
:101EA0009181892B19F081E0888301C080E0DF9166
:101EB000CF911F910F910895CF93DF93EC010E9472
:101EC000250FFE01E55BFD4F882371F0DE01A65B67
:101ED000BD4F81E08C938083C45BDD4F8881998105
:101EE000DF91CF910C948623108280E090E0DF9107
:101EF000CF9108952F923F924F925F926F927F926F
:101F00008F929F92AF92BF92CF92DF92EF92FF9209
:101F10000F931F93CF93DF93CDB7DEB72B970FB6F9
:101F2000F894DEBF0FBECDBF8C017C012FEAE21A10
:101F30002DEFF20A5C0187EBA81A8DEFB80AD801E1
:101F4000AB5ABD4FBD83AC83F801ED5AFD4FFF8303
:101F5000EE83C8018A5A9D4F998788871A97BB8755
:101F6000AA87F80187818111C1C0D7018D919C9109
:101F7000DC01ED91FC910480F581E02D0995892B20
:101F800009F4B4C0F70180819181DC01ED91FC91ED
:101F90000480F581E02D0995811592400CF0A2C0D6
:101FA000F70180819181DC01ED91FC910480F58144
:101FB000E02D09954C01A401B801675B7F4FF70143
:101FC000808191810E94881968011401200E311EC0
:101FD000C80106969B838A83280194EB491A9DEFDA
:101FE000590A4801A2EB8A1AADEF9A0A3801B6EBFA
:101FF0006B1ABDEF7B0AC214D30409F4B2CFF60109
:10200000E75BFF4F80818983F50110822A813B8144
:10201000AC81BD814C91BE016F5F7F4FC8010E94B2
:102020008B0E2981EE81FF813081D80112969C911F
:102030001297F801E90FF11D231316C0811114C086
:102040001186992329F021E0F501208316961C9230
:10205000F8011282D2011D921C92F40111821082A9
:10206000E1E0D301EC9316C021879F5FD80112965F
:102070009C93129714968C911497981758F0129677
:102080001C92F20111821082D4011D921C9221E057
:10209000F3012083D5018C91813001F5C8010E94A4
:1020A0005C0FF8018183823390F4AA85BB852C9163
:1020B000222369F0FC01FF27E45DFE4FEE0FFF1FB6
:1020C000E00FF11F0190F081E02D309731F4A885E9
:1020D000B985ED91FC91309709F00995BFEFCB1AC6
:1020E000DB0A89CF812C82E0982E65CF2B960FB624
:1020F000F894DEBF0FBECDBFDF91CF911F910F913E
:10210000FF90EF90DF90CF90BF90AF909F908F9017
:102110007F906F905F904F903F902F900895CF9356
:10212000DF93EC010E94250FFE01E55BFD4F882344
:1021300071F0DE01A65BBD4F81E08C938083C45BB0
:10214000DD4F88819981DF91CF910C94A423108277
:1021500060E070E0CB01DF91CF910895FC01238115
:1021600034812627022E2295207F2025032E322F10
:1021700022952F700226269532272327220F220F21
:10218000220F2025FC01348323830895CF93DF930E
:10219000EC018D819E81DC01ED91FC916C810190BF
:1021A000F081E02D09958D819E81DC01ED91FC91FE
:1021B0000190F081E02D6B81DF91CF9109948F9296
:1021C0009F92AF92BF92CF92DF92EF92FF92CF9306
:1021D000DF93EC016B010E94C3144B015C01E12C05
:1021E000F12C8D819E81DC01ED91FC910680F781BF
:1021F000E02D099597FF0DC00E94C3146819790955
:102200008A099B096C157D058E059F0550F38FEF9C
:102210009FEFDF91CF91FF90EF90DF90CF90BF9035
:10222000AF909F908F900895CF93DF93EC018D81B5
:102230009E81DC01ED91FC910480F581E02D0995F2
:102240001816190654F48D819E81DC01ED91FC91E4
:102250000680F781E02D0995EACFDF91CF910895AF
:102260002F923F924F925F926F927F928F929F92A6
:10227000AF92BF92CF92DF92EF92FF920F931F9394
:10228000CF93DF93CDB7DEB72D970FB6F894DEBFAF
:102290000FBECDBF3C011B013C832B83BF82AE82AE
:1022A0005801AC0CBD1CA40EB51EBD824B2C512C8C
:1022B000CA01860F971F99878887D901A00FB11F80
:1022C000BB87AA87F601EE0DFF1DFD87EC87D301C2
:1022D00018968C91581608F026C1EFEFFFEFD30146
:1022E0001496FC93EE93139715968D919C911697E7
:1022F000DC01ED91FC910190F081E02D6FEF0995EB
:102300006FEFC3010E94AE10F30185819681DC015D
:10231000ED91FC910190F081E02DD3016C91099534
:10232000F3016081C3010E94AE10D30115968D9117
:102330009C911697DC01ED91FC910190F081E02DCC
:102340006D810995642DC3010E94AE10F301858152
:102350009681DC01ED91FC910190F081E02D6A2DD8
:1023600009956A2DC3010E94AE1061018885998587
:10237000C816D906A1F0F301858196818601DC019A
:10238000ED91FC910190F081E02DD6016D916D01F0
:102390000995F8016081C3010E94AE10E7CFCB80A0
:1023A000DC808A859B85C816D906B1F0D3011596C5
:1023B0008D919C9116978601DC01ED91FC91019025
:1023C000F081E02DD6016D916D010995F8016081D4
:1023D000C3010E94AE10E5CF87018C859D8508174B
:1023E0001907B1F0D30115968D919C91169768014C
:1023F000DC01ED91FC910190F081E02DD8016D910F
:102400008D010995F6016081C3010E94AE10E5CFF0
:10241000C3010E94C61064E670E0C3010E94DF1091
:102420008F3F910509F074C0EFEFFFEFD3011496D1
:10243000FC93EE9313976FEFC3010E94AE1065E01B
:1024400070E0C3010E94DF10D3016C91262F30E0B1
:102450008217930709F05CC0C3010E94AE106AE0C6
:1024600070E0C3010E94DF108C0197FD51C0682FFE
:10247000C3010E94AE106AE070E0C3010E94DF1049
:102480006C0197FD45C0682FC3010E94AE100A83FE
:10249000198209811A810C0D1D1DC12CD12C65E0FA
:1024A00070E0C301C016D106A1F0C814D90489F0A8
:1024B0000E94DF1097FD09C0EE81FF81EC0DFD1D2C
:1024C0008083682FC3010E94AE10BFEFCB1ADB0AD6
:1024D000E6CF0E94DF106C0197FD1AC065E070E046
:1024E000C3010E94DF1097FD13C0DC2CCC24C80E62
:1024F000D91EF301838194818C159D0549F4808157
:102500008F5F8083C8018016910678F4C4010DC0E6
:10251000539464E670E080E090E00E94F214C301FE
:102520000E941411D4CE8FEF9FEF2D960FB6F89422
:10253000DEBF0FBECDBFDF91CF911F910F91FF90F6
:10254000EF90DF90CF90BF90AF909F908F907F9053
:102550006F905F904F903F902F90089510922707B3
:1025600082EB97E090932D0780932C0710922E0713
:1025700010922F07909331078093300708958F9220
:102580009F92AF92BF92CF92DF92EF92FF920F9302
:102590001F9348015901C12CD12CE12CF12C00E0F2
:1025A00010E020E030E00E9430111F910F91FF9069
:1025B000EF90DF90CF90BF90AF909F908F90089555
:1025C0000F931F9300E010E020E030E00E94BF1264
:1025D0001F910F910895CF93DF9300D0CDB7DEB751
:1025E000DC0152968C915297882389F080E589838B
:1025F0006A8342E050E0BE016F5F7F4F1C968D9171
:102600009C911D970E94E01281E090E01FC05596BA
:10261000ED91FC91569753968C91539791E0980FBA
:1026200053969C935397E80FF11D608353969C91AA
:10263000539754968C915497981308C0ED91FC9140
:1026400011970284F385E02DCD0109950F900F902D
:10265000DF91CF910895AF92BF92CF92DF92EF9228
:10266000FF920F931F93CF93DF9300D0CDB7DEB7C8
:102670005C017A01DC0152968C91811104C08B01BE
:10268000E60EF71E41C06A01BFEFCB1ADB0AC60196
:1026900069837A830E940A188C01FC0180E581938A
:1026A000A70169817A81CF010E94CB23A601B801DD
:1026B000F501848595850E94E0120115110519F038
:1026C000C8010E940C18C70122C0D5015596ED9192
:1026D000FC91569753968C91539791E0980F53968F
:1026E0009C93D8019D918D01E80FF11D9083F50118
:1026F00093898489981308C00190F081E02D0284A9
:10270000F385E02DC50109950E151F05F1F60F9013
:102710000F90DF91CF911F910F91FF90EF90DF907D
:10272000CF90BF90AF900895CF93DF93EC018A894B
:1027300081110AC04B8950E06D897E898C859D8509
:102740000E94E01281E08B8BDF91CF910895FC0114
:102750001382128248EE53E060E070E044835583B8
:10276000668377838BEB93E09183808387E297E0A6
:102770009587848716861786118A108A81E0828B56
:102780000895CF93DF93EC018A89811108C08D8968
:102790009E89009711F00E940C1881E08A8BDF91CE
:1027A000CF910895EF92FF920F931F93CF93DF93F2
:1027B00000D0CDB7DEB77C01FC018685811114C045
:1027C000178680E7898380E28A832089318900E245
:1027D00010E042E050E0BE016F5F7F4F8485958539
:1027E0000E94BF12F70186870F900F90DF91CF9163
:1027F0001F910F91FF90EF900895CF93DF93EC011D
:102800000E94D2138E8590E0DF91CF910895CF93EF
:10281000DF93EC010E94D2138E85882369F08150EA
:102820008E87E889F9898F8591E0980F9F87E80F57
:10283000F11D808190E002C08FEF9FEFDF91CF917B
:102840000895CF93DF93EC010E94D2138E858823E5
:1028500041F08F85E889F989E80FF11D808190E0CA
:1028600002C08FEF9FEFDF91CF910895CF93DF9359
:10287000EC010E94C11388899989009721F00E9478
:102880000C18198A188ADF91CF9108952BEB33E049
:10289000FC01318320830C94361482E397E00C947E
:1028A000A71382E397E00C94461487E297E0909395
:1028B0004A0780934907089587E297E090934C0771
:1028C00080934B0708950F9300E020E040E060E024
:1028D0008DE497E00E94DB170F9108950F9300E0BD
:1028E00020E040E060E083E597E00E94DB170F9175
:1028F00008951F920F920FB60F9211242F933F93BA
:102900008F939F93AF93BF9380915A0790915B07EA
:10291000A0915C07B0915D073091590723E0230F28
:102920002D3720F40196A11DB11D05C026E8230F07
:102930000296A11DB11D2093590780935A079093C9
:102940005B07A0935C07B0935D0780915E07909151
:102950005F07A0916007B09161070196A11DB11DAD
:1029600080935E0790935F07A0936007B093610721
:10297000BF91AF919F918F913F912F910F900FBE7B
:102980000F901F9018952FB7F89460915A07709187
:102990005B0780915C0790915D072FBF08953FB75B
:1029A000F89480915E0790915F07A0916007B091C5
:1029B000610726B5A89B05C02F3F19F00196A11D00
:1029C000B11D3FBF6627782F892F9A2F620F711D87
:1029D000811D911D42E0660F771F881F991F4A9540
:1029E000D1F70895CF92DF92EF92FF92CF93DF93CA
:1029F0006B017C010E94CF14EB01C114D104E104EE
:102A0000F10489F00E94D31D0E94CF146C1B7D0B32
:102A1000683E734090F381E0C81AD108E108F108DC
:102A2000C851DC4FEACFDF91CF91FF90EF90DF905C
:102A3000CF900895789484B5826084BD84B5816018
:102A400084BD85B5826085BD85B5816085BDEEE6B6
:102A5000F0E0808181608083E1E8F0E01082808195
:102A600082608083808181608083E0E8F0E0808103
:102A700081608083E1E9F0E08081826080838081F1
:102A800081608083E0E9F0E0808181608083E1EC17
:102A9000F0E0808184608083808182608083808197
:102AA00081608083E3ECF0E0808181608083E0ECF2
:102AB000F0E0808182608083E2ECF0E080818160E0
:102AC0008083EAE7F0E08081846080838081826097
:102AD0008083808181608083808180688083089585
:102AE00090E0FC013197EF30F105B0F5EA5AFF4F65
:102AF0000C946D21809180008F7703C080918000BD
:102B00008F7D80938000089580918000877FF9CF2A
:102B100084B58F7702C084B58F7D84BD0895809180
:102B200090008F7707C0809190008F7D03C08091C7
:102B30009000877F8093900008958091C0008F77E8
:102B400003C08091C0008F7D8093C0000895809164
:102B5000C200877F8093C2000895CF93DF9390E0F7
:102B6000FC01E851FF4F2491FC01EA5FFE4F849184
:102B7000882349F190E0880F991FFC01EE5CFE4F1D
:102B8000A591B4918C5D9E4FFC01C591D4919FB7E6
:102B9000611108C0F8948C91209582238C938881D0
:102BA00082230AC0623051F4F8948C91322F309510
:102BB00083238C938881822B888304C0F8948C9122
:102BC000822B8C939FBFDF91CF9108950F931F931A
:102BD000CF93DF931F92CDB7DEB7282F30E0F901F6
:102BE000E653FF4F8491F901E851FF4F1491F90129
:102BF000EA5FFE4F04910023C9F0882321F0698326
:102C00000E9470156981E02FF0E0EE0FFF1FEC5D70
:102C1000FE4FA591B4919FB7F8948C91611103C0B8
:102C20001095812301C0812B8C939FBF0F90DF9162
:102C3000CF911F910F910895CF93DF931F92CDB73E
:102C4000DEB76983DC01ED91FC910280F381E02D18
:102C500041E050E0BE016F5F7F4F09950F90DF911B
:102C6000CF910895CF93DF93EC018C859D8597FFDD
:102C700005C082E00E947C1A9D878C878C859D858B
:102C8000DF91CF91089583E00C94D11CFC018485E1
:102C9000958597FD06C082E00E94241A90E0019677
:102CA000089582E00E94241A90E00895FC01848532
:102CB000958597FD05C02FEF3FEF35872487089551
:102CC00082E00C947C1ACF93DF93EC0180910D018C
:102CD000882331F083E00E94AD1A1816190634F0EB
:102CE00081E090E09B838A8380E090E0DF91CF9148
:102CF0000895FC0120812E5F208342E450E060E4CF
:102D000071E080E80C94481BFC0181819081913A2C
:102D100059F4813209F03CC047E050E066E071E0D0
:102D200080E00E94481B43C0913291F5803239F413
:102D300067E070E086E091E00E94791B06C0823275
:102D400009F035C0828180930D0180910601909138
:102D50000701A0910801B0910901803B9440A105B1
:102D6000B105C1F480910D0180FD14C087E797E79C
:102D700090930108809300082BE088E190E00FB663
:102D8000F894A895809360000FBE209360000FC058
:102D900080E0089588E10FB6F89480936000109267
:102DA00060000FBEA895109201081092000881E003
:102DB00008952FEF3FEFFC01358724870895109287
:102DC00065071092640788EE93E0A0E0B0E080937E
:102DD000660790936707A0936807B09369078BEC29
:102DE00093E090936307809362078FEF9FEF909338
:102DF0006F0780936E0708951F920F920FB60F9280
:102E000011242F938F939F93EF93FF93E091C20729
:102E1000F091C3078081E091C807F091C90782FD56
:102E200012C090818091CB078F5F8F732091CC0768
:102E3000821751F0E091CB07F0E0EE54F84F958FF8
:102E40008093CB0701C08081FF91EF919F918F917B
:102E50002F910F900FBE0F901F9018951F920F92F9
:102E60000FB60F9211242F933F934F935F936F935D
:102E70007F938F939F93AF93BF93EF93FF9382EBD7
:102E800097E00E940F1EFF91EF91BF91AF919F912C
:102E90008F917F916F915F914F913F912F910F9003
:102EA0000FBE0F901F90189582EB97E00E94D41DE3
:102EB00021E0892B09F420E0822F08951092B507B4
:102EC0001092B40788EE93E0A0E0B0E08093B607DC
:102ED0009093B707A093B807B093B90782EF93E038
:102EE0009093B3078093B2078DEC90E09093BF0767
:102EF0008093BE078CEC90E09093C1078093C0074D
:102F000088EC90E09093C3078093C20789EC90E02F
:102F10009093C5078093C4078AEC90E09093C7070D
:102F20008093C6078EEC90E09093C9078093C80702
:102F30001092CB071092CC071092CD071092CE07BB
:102F40000895AF92BF92CF92DF92EF92FF920F93CC
:102F50001F93CF93DF936C017B01C0E0D0E000E0D2
:102F600010E0F601EC0FFD1F4AE050E06281C7015E
:102F70000E9453195C016EE2C7010E945C188A0D21
:102F80009B1D080F191F2196C330D10551F74AE048
:102F900050E0F6016581C7010E945319800F911F0F
:102FA000DF91CF911F910F91FF90EF90DF90CF9025
:102FB000BF90AF9008950F93FC018BED93E0918348
:102FC000808362834383248305830F9108958BED6F
:102FD00093E09093500880934F08109251081092FC
:102FE00052081092530810925408089508950E94B0
:102FF0001A150E94F61785E598E00E94311D0E947F
:10300000740AC1E0DEE10E94D90A2097E1F30E9430
:10301000011EF9CF0C9495210C942D22CF92DF92B2
:10302000EF92FF920F931F93CF93DF936C017A017E
:10303000EB01E60EF71E00E010E0CE15DF0561F0B3
:103040006991D601ED91FC910190F081E02DC601CE
:103050000995080F191FF1CFC801DF91CF911F917A
:103060000F91FF90EF90DF90CF900895611571055B
:1030700081F0DB010D900020E9F7AD0141505109CD
:10308000461B570BDC01ED91FC910280F381E02D92
:10309000099480E090E00895DC01ED91FC91DB0162
:1030A00014964D915C9115976D917C910280F381FE
:1030B000E02D09940C943618DC01ED91FC910190FF
:1030C000F081E02D09946DED73E00C9436180F93A8
:1030D0001F93CF93DF93EC010E9436188C01CE0131
:1030E0000E946318800F911FDF91CF911F910F9164
:1030F00008958F929F92AF92BF92CF92DF92EF92FC
:10310000FF920F931F93CF93DF93CDB7DEB7A197B5
:103110000FB6F894DEBF0FBECDBF7C01C42EE52FE5
:10312000CB01D22E19A221E02D1510F02AE0D22ECB
:103130008E010F5D1F4F8D2C912CA12CB12C6C2D6D
:103140007E2FA50194010E942C218C2DD29E8019E6
:103150001124015011098A3014F4805D01C0895C8A
:10316000F8018083211531054105510521F0C22E5A
:10317000E32FCA01E4CFB801C7010E943618A19617
:103180000FB6F894DEBF0FBECDBFDF91CF911F9178
:103190000F91FF90EF90DF90CF90BF90AF909F90F6
:1031A0008F900895CF92DF92EF92FF920F931F932B
:1031B000CF93DF93EC016A017B012115310579F48E
:1031C000E881F9810190F081E02D642FDF91CF91AA
:1031D0001F910F91FF90EF90DF90CF9009942A30CC
:1031E0003105E9F477FF1AC06DE20E945C188C018A
:1031F00044275527BA014C195D096E097F092AE059
:10320000CE010E947918800F911FDF91CF911F91FD
:103210000F91FF90EF90DF90CF9008952AE0B701D3
:10322000A601CE01DF91CF911F910F91FF90EF90FA
:10323000DF90CF900C9479180F931F93CF93DF9367
:10324000EC019A01AB01662757FD6095762F0E942D
:10325000D2188C01CE010E946318800F911FDF915C
:10326000CF911F910F9108950F931F93CF93DF93E9
:10327000EC010E94D2188C01CE010E946318800FCD
:10328000911FDF91CF911F910F9108952115310565
:1032900041F4DC01ED91FC910190F081E02D642F6F
:1032A00009940C9479189A01462F50E060E070E080
:1032B0000C9446190F931F93CF93DF93EC010E9458
:1032C000C314688779878A879B87E881F98106809C
:1032D000F781E02DCE01099597FF15C00E94C31418
:1032E000088519852A853B85601B710B820B930B22
:1032F0000C811D812E813F81601771078207930722
:1033000020F38FEF9FEFDF91CF911F910F910895E1
:10331000CF92DF92EF92FF920F931F93CF93DF93A1
:103320007C016A01EB0100E010E00C151D0549F07D
:10333000C7010E945A1997FD04C089930F5F1F4F60
:10334000F4CFC801DF91CF911F910F91FF90EF90C3
:10335000DF90CF9008954091590850915A082091DC
:1033600057083091580842175307B4F49091E80079
:103370009570E1F39091E80092FD19C08093F100FF
:103380008091590890915A0801968F739927892B3B
:1033900019F48EEF8093E8008091590890915A08B3
:1033A000019690935A088093590881E0089580E02F
:1033B0000895CF92DF92FF920F931F93CF93DF93E5
:1033C0001F92CDB7DEB7082F162F862F880F8E5F7E
:1033D00099830E94AB1983E00E94AB19F02EC02E96
:1033E0009981D92E8C2D8F19811778F4F60184914B
:1033F0000E94AB19082F80E00E94AB198023FFEFD9
:10340000CF1ADF0A8111EECF01C081E00F90DF916A
:10341000CF911F910F91FF90DF90CF900895615051
:1034200030F02091F100FC0120830196F8CF28981C
:1034300084E680935C0808952FB7FC012083F894FC
:1034400067706093E9000895CF93DF931F92CDB723
:10345000DEB7682FCE0101960E941C1A8091F200FF
:1034600099819FBF0F90DF91CF910895FF920F93A5
:103470001F93CF93DF9300D0CDB7DEB7F62E8A012E
:1034800090915B08992311F057FF03C08FEF9FEFD6
:103490002BC0682FCE0101967A830E941C1A80915E
:1034A000F20090E0A8017A81801791070CF4AC013A
:1034B000EF2DF72FF40E84E6FE1639F0289880934E
:1034C0005C089091F1009193F7CF4115510521F0DF
:1034D0008091F200882321F089818FBFCA0104C046
:1034E0008BE68093E800F8CF0F900F90DF91CF919B
:1034F0001F910F91FF900895CF93DF931F92CDB747
:10350000DEB741E050E0BE016F5F7F4F0E94361A88
:10351000019719F4898190E002C08FEF9FEF0F901F
:10352000DF91CF910895CF93DF931F92CDB7DEB790
:10353000682FCE0101960E941C1A9091E800892FF5
:10354000807295FF04C09091F20080E4891B9981FC
:103550009FBF0F90DF91CF9108956F927F928F92CE
:103560009F92AF92BF92CF92DF92EF92FF920F9312
:103570001F93CF93DF931F92CDB7DEB7782E7B01D9
:10358000C42EB52E80915B08882369F0042F152F77
:103590008AEFD82E872D8072982E9AE3A92E872D38
:1035A0008074882E11C08FEF9FEF57C0872D0E9427
:1035B000931A682E81110CC0DA94A9F361E070E0CF
:1035C00080E090E00E94F2140115110579F73BC0EC
:1035D000282F30E0021713070CF4602E672DCE0160
:1035E00001960E941C1A8091E80085FF29C0262DB3
:1035F00030E0021B130B992039F06A948FEF6816A4
:10360000B1F01092F100F9CFF701862D77FE07C0D7
:10361000815058F094919093F1003196F9CF8150F8
:1036200020F091919093F100FACFE20EF31E809179
:10363000E80085FF0FC00115110511F481100AC0C3
:1036400089818FBFC1CF5D9884E680935D088C2D02
:103650009B2D03C0A092E800F3CF0F90DF91CF9194
:103660001F910F91FF90EF90DF90CF90BF90AF90A0
:103670009F908F907F906F9008951092E900109224
:103680005A08109259089093580880935708089543
:10369000CF92DF92FF920F931F93CF93DF9300D0CF
:1036A000CDB7DEB7F82E8A016B0101151105B1F017
:1036B000F601F7FE02C0849101C0808149835A83DC
:1036C0000E94AB1901501109FFEFCF1ADF0A49819F
:1036D0005A818111EACF8FEF9FEF01C0CA010F908D
:1036E0000F90DF91CF911F910F91FF90DF90CF90BE
:1036F00008951F93CF93DF931F92CDB7DEB7162F98
:103700002091E80022FFFCCF612F79830E940F1ADD
:103710008BEF8093E800812F7981972F0F90DF91B5
:10372000CF911F910895CF93DF931F92CDB7DEB74E
:103730001982CE0101960E947916CE0101960E944F
:10374000D51E898190E00F90DF91CF9108951F924F
:103750000F920FB60F921124EF92FF920F931F93C7
:103760002F933F934F935F936F937F938F939F9389
:10377000AF93BF93EF93FF93CF93DF93CDB7DEB7B4
:103780006297DEBFCDBF1092E9008091E80083FF11
:10379000EBC068E0CE010A960E940F1A82EF809378
:1037A000E8009A8597FF05C08091E80080FFFCCF74
:1037B00003C08EEF8093E800892F807609F0B9C0AE
:1037C0008B85811105C01092F1001092F100C5C0E7
:1037D000282F2D7F213009F4C0C0853049F4809115
:1037E000E80080FFFCCF8C8580688093E300B5C043
:1037F000863009F076C02D85E888F988223071F589
:1038000080E090E02A8B0E943D1B0E94931B99E070
:103810008E010F5F1F4FF801392F11923A95E9F78A
:1038200099832A892A8391E09E8390E898879AEF6A
:1038300099872091590830915A08275F3F4F3C8360
:103840002B838D83C7010E943D1B49E050E0B801E6
:1038500080E00E94481B0E94931B7FC0C7012A8BF7
:103860000E943D1B2A89223241F482E290E00E94AC
:10387000E01E892B09F071C074C0213069F4888979
:103880009989089711F42093560880915608811160
:1038900018C069E971E01AC0233009F062C08C8554
:1038A000882391F0823021F460E187EB91E006C03B
:1038B000813009F056C06BE08BEA91E00E94D91983
:1038C0004AC067E871E002C068EC71E061157105FB
:1038D00009F447C0FB01449150E080E80E94481B76
:1038E0003CC0873009F43DC0883021F481E08093EA
:1038F000F10033C0893089F5937099F5E3E8F1E080
:1039000081E021E096E38093E9002093EB0034917D
:103910003093EC009093ED008F5F3196853099F7EE
:103920008EE78093EA001092EA008C8580935B0812
:1039300014C0888999890E943D1B8E85811105C01C
:10394000CE010A960E94841606C0823051F4CE0140
:103950000A960E94081F882321F08EEF8093E800CA
:1039600003C081E28093EB0062960FB6F894DEBF4D
:103970000FBECDBFDF91CF91FF91EF91BF91AF917E
:103980009F918F917F916F915F914F913F912F9177
:103990001F910F91FF90EF900F900FBE0F901F900F
:1039A00018958093E9008091F200882319F08AE34A
:1039B0008093E80008951F920F920FB60F92112482
:1039C0002F933F934F935F936F937F938F939F9327
:1039D000AF93BF93EF93FF938091E1001092E100CA
:1039E00083FF0FC01092E90091E09093EB001092DA
:1039F000EC0092E39093ED0010925B0898E09093B6
:103A0000F00082FF1DC083E00E94D11C80915D0800
:103A1000882339F080915D08815080935D08882368
:103A200069F080915C08882359F080915C0881508E
:103A300080935C08811104C0289A02C05D9AF1CF7E
:103A4000FF91EF91BF91AF919F918F917F916F9176
:103A50005F914F913F912F910F900FBE0F901F904C
:103A6000189510925B0881E08093D70080EA8093DC
:103A7000D80082E189BD09B400FEFDCF61E070E0AD
:103A800080E090E00E94F21480E98093D8008CE0FE
:103A90008093E2001092E000559A209A0895FC016C
:103AA000808191810C942D22CF93DF93EC0188814A
:103AB0009981009711F00E942D22198218821D828F
:103AC0001C821B821A82DF91CF9108950F931F935E
:103AD000CF93DF93EC018B016F5F7F4F88819981DA
:103AE0000E94BC22009731F0998388831B830A834C
:103AF00081E001C080E0DF91CF911F910F91089587
:103B0000CF93DF93EC0188819981892B29F08A81F9
:103B10009B818617970760F4CE010E94661D88235B
:103B200041F08C819D81892B19F4E881F981108203
:103B300081E0DF91CF910895EF92FF920F931F9351
:103B4000CF93DF93EC017B018A01BA010E94801DB3
:103B5000811104C0CE010E94541D07C01D830C8337
:103B6000B701888199810E94D423CE01DF91CF9142
:103B70001F910F91FF90EF900895FC011182108228
:103B800013821282158214826115710559F0FB01AE
:103B900001900020E9F7AF0141505109461B570B36
:103BA0000C949C1D08950895FC01818D228D90E058
:103BB000805C9F4F821B91098F7399270895FC01A8
:103BC000918D828D981731F0828DE80FF11D858DD2
:103BD00090E008958FEF9FEF0895FC01918D828D05
:103BE000981761F0828DDF01A80FB11D5D968C9151
:103BF000928D9F5F9F73928F90E008958FEF9FEF5C
:103C0000089584E597E1892B49F080E090E0892BC5
:103C100029F00E94541781110C9400000895FC01B2
:103C2000848DDF01A80FB11DA35ABF4F2C91848D45
:103C300090E001968F739927848FA689B7892C937A
:103C4000A089B1898C9180648C93938D848D981315
:103C500006C00288F389E02D80818F7D80830895DE
:103C6000CF93DF93EC01888D8823C9F0EA89FB8923
:103C7000808185FD05C0A889B9898C9186FD0FC01A
:103C80000FB607FCF5CF808185FFF2CFA889B989EF
:103C90008C9185FFEDCFCE010E940F1EE7CFDF9103
:103CA000CF910895CF92DF92FF920F931F93CF93FE
:103CB000DF931F92CDB7DEB76C0181E0D601589635
:103CC0008C9358975B969C915B975C968C915C97D4
:103CD000981307C05096ED91FC915197808185FD16
:103CE0002EC0F601038D10E00F5F1F4F0F731127D9
:103CF000F02EF601848DF81211C00FB607FCF9CF33
:103D0000D6015096ED91FC915197808185FFF1CFBE
:103D1000C60169830E940F1E6981EBCF838DE80F76
:103D2000F11DE35AFF4F6083D6015B960C935B97BE
:103D30005296ED91FC915397808180620CC0D60120
:103D40005696ED91FC91579760835096ED91FC91BA
:103D5000519780818064808381E090E00F90DF91B3
:103D6000CF911F910F91FF90DF90CF900895FF9218
:103D70000F931F93CF93DF93EC01F62EE881F98127
:103D80000480F581E02D09958C01E881F981068098
:103D9000F781E02D6F2DCE010995C8019927DF919C
:103DA000CF911F910F91FF900895FC0120812F5F0B
:103DB000208349E150E06CE472E080E80C94481BF9
:103DC00045E650E065E672E080E80C94481BEF920F
:103DD000FF920F931F93CF93DF931F92CDB7DEB760
:103DE00089838B017A0141E050E0BE016F5F7F4F14
:103DF00084E00E94AD1AA701B80184E40E94AD1AC4
:103E00000F90DF91CF911F910F91FF90EF90089548
:103E1000FC0191818081813A31F481E0913091F00F
:103E2000933089F411C0813271F49B3021F4828186
:103E300080930F0105C09A3031F4828180930E0186
:103E400081E00895089580E0089548E050E082E020
:103E50000C94E71ECF93DF93DC01683818F0E8E795
:103E6000E60F25C0E62FF0E067FF11C0E058F1092A
:103E700081E090E001C0880FEA95EAF714969C91E2
:103E80001497982B14969C931497E0E010C0E45379
:103E9000FE4FE491EE2309F440C0E7FF08C01496FA
:103EA0008C911497826014968C931497EF771696E2
:103EB0008C9116978E1741F117968C9117978E1744
:103EC00019F118968C9118978E17F1F019968C911C
:103ED00019978E17C9F01A968C911A978E17A1F020
:103EE0001B968C911B978E1779F080E090E0ED0186
:103EF000C80FD91F2E81211102C0EE8305C0019683
:103F000086309105A1F709C0BD016C5F7F4FCD01DF
:103F10000E94251F81E090E008C081E090E01396A8
:103F20009C938E93129780E090E0DF91CF9108955B
:103F3000683818F0E8E7E60F25C0E62FF0E067FFE5
:103F400012C0E058F10921E030E001C0220FEA95EB
:103F5000EAF72095DC0114963C91149732231496CD
:103F60003C93E0E00FC0E453FE4FE491EE2329F1CF
:103F7000E7FF08C0DC0114962C9114972D7F14964E
:103F80002C93EF7720E030E0EE2351F0DC01A20F1C
:103F9000B31F16964C9116974E1302C016961C929C
:103FA0002F5F3F4F2630310579F7BC016C5F7F4FA3
:103FB0000E94251F81E090E0089580E090E0089540
:103FC000FC011682178210861186128613861482CF
:103FD000BC016C5F7F4F0C94251F10926A081092F1
:103FE00061081092600882E094E090935F088093EB
:103FF0005E08089504D06894B111B5C0089598D0B2
:1040000088F09F5790F0B92F9927B751A0F0D1F0C1
:10401000660F771F881F991F1AF0BA95C9F712C04B
:10402000B13081F09FD0B1E008959CC0672F782F08
:104030008827B85F39F0B93FCCF3869577956795B7
:10404000B395D9F73EF490958095709561957F4F23
:104050008F4F9F4F0895E89409C097FB3EF49095C9
:104060008095709561957F4F8F4F9F4F9923A9F051
:10407000F92F96E9BB279395F695879577956795E0
:10408000B795F111F8CFFAF4BB0F11F460FF1BC024
:104090006F5F7F4F8F4F9F4F16C0882311F096E9B7
:1040A00011C0772321F09EE8872F762F05C0662365
:1040B00071F096E8862F70E060E02AF09A95660F1E
:1040C000771F881FDAF7880F9695879597F90895D7
:1040D00097F99F6780E870E060E008959FEF80ECBB
:1040E000089500240A94161617061806090608955E
:1040F00000240A9412161306140605060895092EC4
:104100000394000C11F4882352F0BB0F40F4BF2B32
:1041100011F460FF04C06F5F7F4F8F4F9F4F089572
:1041200057FD9058440F551F59F05F3F71F0479568
:10413000880F97FB991F61F09F3F79F0879508954D
:10414000121613061406551FF2CF4695F1DF08C06C
:10415000161617061806991FF1CF86957105610589
:1041600008940895E894BB2766277727CB0197F931
:1041700008950BD0C4CFB5DF28F0BADF18F095232F
:1041800009F0A6CFABCF1124EECFCADFA0F3959FE5
:10419000D1F3950F50E0551F629FF001729FBB272E
:1041A000F00DB11D639FAA27F00DB11DAA1F649FDA
:1041B0006627B00DA11D661F829F2227B00DA11D8D
:1041C000621F739FB00DA11D621F839FA00D611D13
:1041D000221F749F3327A00D611D231F849F600D34
:1041E000211D822F762F6A2F11249F5750408AF06D
:1041F000E1F088234AF0EE0FFF1FBB1F661F771FF9
:10420000881F91505040A9F79E3F510570F060CF34
:10421000AACF5F3FECF3983EDCF3869577956795E0
:10422000B795F795E7959F5FC1F7FE2B880F911D16
:104230009695879597F90895DB018F939F930E9438
:104240007321BF91AF91A29F800D911DA39F900DEF
:10425000B29F900D11240895A1E21A2EAA1BBB1B38
:10426000FD010DC0AA1FBB1FEE1FFF1FA217B30742
:10427000E407F50720F0A21BB30BE40BF50B661F58
:10428000771F881F991F1A9469F76095709580951C
:1042900090959B01AC01BD01CF010895052E97FBC0
:1042A0001EF400940E94652157FD07D00E942C2126
:1042B00007FC03D04EF40C94652150954095309541
:1042C00021953F4F4F4F5F4F089590958095709582
:1042D00061957F4F8F4F9F4F0895EE0FFF1F059001
:1042E000F491E02D09940E948621A59F900DB49F22
:1042F000900DA49F800D911D11240895B7FF0C947B
:1043000073210E947321821B930B0895A29FB00119
:10431000B39FC001A39F700D811D1124911DB29FF9
:10432000700D811D1124911D0895CF93DF9382306C
:10433000910510F482E090E0E0916D08F0916E0834
:1043400020E030E0A0E0B0E0309739F140815181C9
:1043500048175907B8F04817590771F482819381BB
:10436000109729F013969C938E9312972CC09093DC
:104370006E0880936D0827C02115310531F0421772
:10438000530718F0A901DB0101C0EF019A01BD013B
:10439000DF010280F381E02DD7CF21153105F9F03F
:1043A000281B390B2430310580F48A819B816115EB
:1043B000710521F0FB019383828304C090936E0802
:1043C00080936D08FE01329644C0FE01E20FF31F98
:1043D0008193919322503109398328833AC02091E7
:1043E0006B0830916C08232B41F42091020130912D
:1043F000030130936C0820936B08209100013091E9
:1044000001012115310541F42DB73EB7409104015A
:1044100050910501241B350BE0916B08F0916C085D
:10442000E217F307A0F42E1B3F0B2817390778F08B
:10443000AC014E5F5F4F2417350748F04E0F5F1FEA
:1044400050936C0840936B088193919302C0E0E015
:10445000F0E0CF01DF91CF910895CF93DF930097E4
:1044600009F487C0FC01329713821282C0916D0853
:10447000D0916E08209781F420813181280F391F57
:1044800080916B0890916C088217930779F5F093EF
:104490006C08E0936B086DC0DE0120E030E0AE17E1
:1044A000BF0750F412964D915C9113979D014115F1
:1044B000510509F1DA01F3CFB383A2834081518121
:1044C000840F951F8A179B0771F48D919C9111970A
:1044D000840F951F02969183808312968D919C91F3
:1044E0001397938382832115310529F4F0936E0885
:1044F000E0936D083EC0D9011396FC93EE9312979A
:104500004D915D91A40FB51FEA17FB0779F48081E7
:104510009181840F951F0296D90111969C938E93D9
:104520008281938113969C938E931297E0E0F0E042
:104530008A819B81009719F0FE01EC01F9CFCE0131
:10454000029628813981820F931F20916B08309148
:104550006C082817390769F4309729F410926E080F
:1045600010926D0802C013821282D0936C08C0931F
:104570006B08DF91CF910895A0E0B0E0E2ECF2E2A9
:104580000C941224EC01CB01209719F40E94952180
:10459000B8C0FE01E60FF71F9E0122503109E21755
:1045A000F30708F4ACC0D9010D911C9111970617BF
:1045B0001707B8F00530110508F49FC0A801445052
:1045C00051094617570708F498C002501109061BF5
:1045D000170B019311936D937C93CF010E942D22B1
:1045E0008CC05B01A01AB10A4E01800E911EA091F1
:1045F0006D08B0916E08612C712C60E070E010972E
:1046000009F449C0A815B905C9F5ED90FC901197BA
:10461000670142E0C40ED11CCA14DB0478F14701E3
:104620008A189B08640142E0C40ED11C1296BC900B
:1046300012971396AC91B5E0CB16D10440F0B2823C
:10464000A38391828082D9018D939C9309C00E5FD0
:104650001F4F0E0D1F1DF90111830083EB2DFA2F43
:104660006115710531F0DB011396FC93EE931297FF
:1046700044C0F0936E08E0936D083FC06D917C914B
:1046800011976616770608F43B01BD0112960D904E
:10469000BC91A02DB4CF60916B0870916C08681527
:1046A0007905E9F468167906D0F44091000150913B
:1046B00001014115510541F44DB75EB76091040108
:1046C00070910501461B570BE417F507C0F4F093F2
:1046D0006C08E0936B08F901918380830EC00E94FF
:1046E00095217C01009759F0A801BE010E94CB23BF
:1046F000CE010E942D22C70104C0CE0102C080E07D
:1047000090E0CDB7DEB7EEE00C942E24FC018827B4
:104710009927E89421912032E9F3293010F02E30C6
:10472000C8F32B3241F02D3239F4689404C00E9452
:10473000F023820F911D219120532A30C0F31EF4E3
:10474000909581959F4F08951F93FC019927882785
:10475000BC01E89411911032E9F3193010F01E30C9
:10476000C8F31B3251F01D3249F4689406C00E9410
:10477000DB23610F711D811D911D119110531A30A2
:10478000B0F33EF490958095709561957F4F8F4F73
:104790009F4F1F910895FB01DC0102C001900D9213
:1047A00041505040D8F70895FB01DC0101900D9273
:1047B0000020E1F70895592F482F372F262F660F35
:1047C000771F881F991F660F771F881F991F620F19
:1047D000731F841F951F660F771F881F991F0895E9
:1047E0007AE0979F902D879F802D910D1124089539
:1047F000F999FECF92BD81BDF89A992780B50895A9
:10480000262FF999FECF1FBA92BD81BD20BD0FB6EC
:10481000F894FA9AF99A0FBE019608952F923F9252
:104820004F925F926F927F928F929F92AF92BF92C0
:10483000CF92DF92EF92FF920F931F93CF93DF936C
:10484000CDB7DEB7CA1BDB0B0FB6F894DEBF0FBEC9
:10485000CDBF09942A88398848885F846E847D8416
:104860008C849B84AA84B984C884DF80EE80FD8018
:104870000C811B81AA81B981CE0FD11D0FB6F8948E
:10488000DEBF0FBECDBFED01089512E0CAEED2E04B
:1048900004C0FE010E946F212296CC3ED107C9F7C9
:0448A000F894FFCFBA
:1048A40000006F08800000E100000000000001012A
:1048B40020416E74656E6E613A2000204368616E1B
:1048C4006E656C3A2000205041204C6576656C3A48
:1048D4002000205A4D6F6465204D61782056656C28
:1048E4003A2000205A4D6F646520416363656C3A39
:1048F4002000417661696C61626C6520636F6D6D47
:10490400616E64733A446F67626F6E650020303B7A
:104914002020202020202020202020202020202093
:104924002020202020202D205468697320636F6D7F
:104934006D616E64206C6973740020312C3C6D6170
:10494400782076656C6F636974793E3B2020202063
:104954002020202D20536574204D61782056656CED
:104964006F63697479202831302D34383030302920
:104974000020322C3C616363656C65726174696FFD
:104984006E3E3B202020202020202D2053657420C3
:10499400416363656C65726174696F6E2028312DA3
:1049A4003332303030290020332C3C616E74656E14
:1049B4006E613E3B2020202020202020202020202B
:1049C4002D2053657420416E74656E6E612028300D
:1049D4003D696E74656772617465643B20313D7234
:1049E400656D6F7465290020342C3C6368616E6EBC
:1049F400656C3E3B202020202020202020202020E9
:104A04002D20536574204368616E6E656C204E756D
:104A14006D2028312D3832290020352C3C5041207E
:104A24006C6576656C3E3B202020202020202020D1
:104A340020202D2053657420506F77657220416DBE
:104A440070204C6576656C2028303D2D31383B2034
:104A5400313D2D31323B20323D2D363B20333D302C
:104A6400295B64426D5D0020372C3C7A6D6F646570
:104A7400206D61782076656C6F636974793E3B20A4
:104A84002D20536574205A4D6F6465204D61782044
:104A940056656C6F63697479202831302D34383051
:104AA4003030290020382C3C7A6D6F6465206163B6
:104AB40063656C65726174696F6E3E3B202D205393
:104AC4006574205A4D6F646520416363656C65723B
:104AD4006174696F6E2028312D33323030302900F3
:104AE40043757272656E742076616C7565730054DB
:104AF40068697320636F6D6D616E642069732075DE
:104B04006E6B6E6F776E2100416E74656E6E610020
:104B14004368616E6E656C005041204C6576656C2F
:104B2400005A4D6F6465204D617856656C005A4D8E
:104B34006F646520416363656C004552524F5200B7
:104B4400736572763100000204032000080000003F
:104B540000220E2A0E290E00000000EB122B13FD7A
:104B640013071421149413000000001C1663164646
:104B74001656163216431600000000A1170D0A003F
:104B84006E616E00696E66006F7666002E0000002E
:104B94000000521E0E18D41DED1DDF1D301E000036
:0C4BA4000000B71E0E182A1F981FE01F0B
:00000001FF
