:100000000C943D020C94D71A0C94FE1A0C94251BE8
:100010000C944C1B0C9465020C9465020C94731B9D
:100020000C9465020C9465020C9444240C94D62222
:100030000C9465020C9465020C9465020C946502A4
:100040000C9465020C9465020C9465020C94650294
:100050000C9465020C9465020C9465020C949A1B36
:100060000C9465020C9465020C9465020C94650274
:100070000C9465020C9465020C9465020C94650264
:100080000C9465020C9465020C9465020C94650254
:100090000C9465020C9465020C940B0C0C94650294
:1000A0000C9465020C9465020C9465026A066A065B
:1000B000640642064C0658065E065B066406640645
:1000C00064066406640664065106060B6A0B640B3C
:1000D000240B640B570B5F0B5B0B640B640B640B03
:1000E000640B200B051D0A1D0F1D191D231D6D1D01
:1000F0006D1D6D1D2D1D371D411D4B1D581D6D1D89
:10010000601D8E1D911D801D841D8A1DB21DB21D96
:10011000B21D951D991D9D1DA31DA71DB21DAD1DD1
:100120002F7661722F666F6C646572732F37342F70
:100130006E6E32717832343933376E3966635F668A
:10014000685F33667A347A6830303030676E2F54A7
:100150002F6275696C646561393638653739326389
:1001600063383065363436666233623130666438FF
:100170003963393035312E746D702F736B6574634C
:10018000682F616F5F5478722E6370700071700019
:100190000000000000000000000101010101010158
:1001A0000102020202020202020303030303030329
:1001B00003040404040404040405050505050505F9
:1001C00005060606060606060607070707070707C9
:1001D00007FFFEFDFBF7EFDFBF7FFEFDFBF7EFDF65
:1001E000BF7FFEFDFBF7EFDFBF7FFEFDFBF7EFDF1D
:1001F000BF7FFEFDFBF7EFDFBF7FFEFDFBF7EFDF0D
:10020000BF7FFEFDFBF7EFDFBF7FFEFDFBF7EFDFFC
:10021000BF7F000102040810204080010204081082
:1002200020408001020408102040800102040810D0
:1002300020408001020408102040800102040810C0
:1002400020408001020408102040800102040810B0
:100250002040800001020203030303040404040499
:100260000404040505050505050505050505050541
:100270000505050606060606060606060606060621
:10028000060606060606060606060606060606060E
:1002900006060607070707070707070707070707F1
:1002A00007070707070707070707070707070707DE
:1002B00007070707070707070707070707070707CE
:1002C00007070707070707070707070707070707BE
:1002D00007070708080808080808080808080808A1
:1002E000080808080808080808080808080808088E
:1002F000080808080808080808080808080808087E
:10030000080808080808080808080808080808086D
:10031000080808080808080808080808080808085D
:10032000080808080808080808080808080808084D
:10033000080808080808080808080808080808083D
:10034000080808080808080808080808080808082D
:10035000080808070605040100080A0B0C0D09002F
:1003600000000200090F0000030401000C0000005F
:100370000000000000000000000000000000040871
:10038000020110408040102040804080080204019B
:1003900080402010020110801020404020040404FE
:1003A000040403040502020202040302020202061C
:1003B0000606060606040402020204040000000009
:1003C0002300260029002C002F000000000025003B
:1003D00028002B002E003100000000002400270020
:1003E0002A002D003000080B00020202010009045F
:1003F0000000010202000005240010010524010193
:1004000001042402060524060001070581031000EB
:100410004009040100020A00000007050202400032
:10042000000705830240000012010002EF020140B4
:100430004123368000010102030112010002000085
:1004400000404123368000010102030141726475BE
:10045000696E6F204C4C430041726475696E6F2069
:100460004C656F6E6172646F0004030904001B0425
:100470006E0B950D1C18191FB90B11241FBECFEF61
:10048000DAE0DEBFCDBF12E0A0E0B1E0E0E4F5E5E8
:1004900002C005900D92A23DB107D9F727E0A2ED69
:1004A000B2E001C01D92A735B207E1F714E0C8E73A
:1004B000D4E004C02297FE010E94F427CE36D10773
:1004C000C9F70E9469250C94932A0C9400000895A2
:1004D00083ED92E00C947119CF92DF92EF92FF922C
:1004E0006B017C01BA018BEE96E00E944C1F60E428
:1004F00071E08BEE96E00E945A1F2AE030E0B701CF
:10050000A6018BEE96E0FF90EF90DF90CF900C94D9
:1005100032206DE271E08BEE96E00E945A1F82ED70
:1005200092E00E9426054AE050E0BC018BEE96E086
:100530000C941A2068E371E08BEE96E00E945A1F3B
:1005400082ED92E00E9454054AE050E0BC018BEE3F
:1005500096E00E94122063E471E08BEE96E00E9428
:100560005A1F82ED92E00E946B054AE050E0BC0108
:100570008BEE96E00C941A20CF93DF936EE471E03B
:100580008BEE96E00E945A1FC0E0D0E060E671E07A
:100590008BEE96E00E945A1FBE0182ED92E00E940F
:1005A00085054AE050E0BC018BEE96E00E941220E7
:1005B0002196C430D10551F7DF91CF91089563E6BC
:1005C00071E08BEE96E00E945A1F82ED92E00E944D
:1005D0003D054AE050E0BC018BEE96E00C941A20F9
:1005E0000E9489020E94DF020E949A020C94BC02BF
:1005F0006FE671E08BEE96E00E94671F66E871E09F
:100600008BEE96E00E94671F62EB71E08BEE96E046
:100610000E94671F63EE71E08BEE96E00E94671FF9
:1006200060E372E08BEE96E00E94671F0C94F0028C
:100630006FE372E08BEE96E00E94671F0C94F80265
:100640000C94F802EF92FF920F931F9362177307B7
:10065000840795072CF0E616F706080719074CF4EF
:1006600069E672E08BEE96E00E94671F80E090E002
:1006700002C081E090E01F910F91FF90EF900895EC
:100680008F929F92AF92BF92CF92DF92EF92FF92A2
:100690000F931F93CF93DF9300D000D000D0CDB73E
:1006A000DEB783ED92E00E9453196C014C01AA243D
:1006B00097FCA094BA2C12E5E12EF12C00E010E09A
:1006C00021E030E040E050E0C501B4010E94220387
:1006D000892BE9F0B60182ED92E00E94220568E5DF
:1006E00072E0CE0101960E945225AE014F5F5F4F2E
:1006F000C501B4010E946C02CE0101960E94E4245F
:100700006AE070E084E00E942A130E94C5142696D5
:100710000FB6F894DEBF0FBECDBFDF91CF911F9112
:100720000F91FF90EF90DF90CF90BF90AF909F9090
:100730008F9008958F929F92AF92BF92CF92DF9247
:10074000EF92FF920F931F93CF93DF9300D000D0CF
:1007500000D0CDB7DEB783ED92E00E9453196C0153
:100760004C01AA2497FCA094BA2C13E0E12EF12CA2
:1007700000E010E020E030E0A901C501B4010E94D2
:100780002203892BE9F0B60182ED92E00E9439053F
:1007900060E672E0CE0101960E945225AE014F5FE5
:1007A0005F4FC501B4010E946C02CE0101960E9408
:1007B000E4246AE070E084E00E942A130E94C514D9
:1007C00026960FB6F894DEBF0FBECDBFDF91CF9156
:1007D0001F910F91FF90EF90DF90CF90BF90AF905F
:1007E0009F908F90089568E173E083ED92E00E94FE
:1007F000701840E253E060E083ED92E00E947618CA
:1008000040E453E064E083ED92E00E9476184AE908
:1008100053E065E083ED92E00C947618CF93DF937C
:10082000EC0161E083ED92E00E946D18CE01DF9152
:10083000CF910C94F3030F930FE22BE34CE26BEE9A
:1008400076E083ED92E00E94681882ED92E00F91CD
:100850000C942105CF92DF92EF92FF920F931F939A
:10086000CF93DF93EC010E94270D6B017C010C817B
:100870001D811F830E8388819981AA81BB81A70175
:100880009601281B390B4A0B5B0BCA01B90122E008
:1008900030E040E050E00E94D327200F311FC88293
:1008A000D982EA82FB82C9012536310514F084E63B
:1008B00090E01816190614F081E090E09D838C8377
:1008C000DF91CF911F910F91FF90EF90DF90CF902C
:1008D0000895589881E00E94650D82E00E94650DA0
:1008E0002D980895AF92BF92CF92DF92EF92FF9230
:1008F0000F931F93CF93DF93EC012C813D818E8169
:100900009F812817390719F4662309F47CC08130C8
:10091000910541F08436910529F08233910511F05B
:10092000662349F058982D9860E070E08AE00E94B4
:10093000DF1C2F980EC041E0223331050CF040E05F
:1009400021E0C2970CF020E0421719F0CE010E947E
:1009500069042C813D812233310551F4CE010E947E
:1009600069046FEF70E08AE00E94DF1C2F9A4BC091
:10097000B901882777FD8095982F2333310514F12D
:100980001F921F921F922AEF2F93A12CB12C650169
:10099000A39414E6E12EF12C00E010E023E330E014
:1009A00040E050E00E94960786E00E94DF1C0F9016
:1009B0000F900F900F908C819D818436910519F5D1
:1009C0002D9A21C01F921F921F9221E02F932AEF90
:1009D000A22EB12CC12CD12C11E3E12EF12C00E080
:1009E00010E021E030E040E050E00E94960785E012
:1009F0000E94DF1C0F900F900F900F908C819D81B3
:100A0000019709F4589ADF91CF911F910F91FF90B0
:100A1000EF90DF90CF90BF90AF900895CF93DF938A
:100A2000EC017D836C837F836E830E94270D688336
:100A300079838A839B8361E0CE01DF91CF910C940F
:100A4000720408958CE090E00C94750ECF93DF93C0
:100A500000D0CDB7DEB7BE016F5F7F4F8CE090E076
:100A60000E94880E89819A810F900F90DF91CF911B
:100A700008958EE090E00C94750ECF93DF9300D034
:100A8000CDB7DEB7BE016F5F7F4F8EE090E00E9472
:100A9000880E89819A810F900F90DF91CF910895F0
:100AA00082E190E00C94750ECF93DF9300D0CDB728
:100AB000DEB7BE016F5F7F4F82E190E00E94880E3B
:100AC00089819A810F900F90DF91CF91089584E1F1
:100AD00090E00C94750ECF93DF9300D0CDB7DEB7C6
:100AE000BE016F5F7F4F84E190E00E94880E898194
:100AF0009A810F900F90DF91CF910895455F5F4FDE
:100B0000CA01880F991F0C94750ECF93DF9300D004
:100B1000CDB7DEB7CB010B96BE016F5F7F4F880F5D
:100B2000991F0E94880E89819A810F900F90DF9102
:100B3000CF91089580E090E0089580E090E00895DE
:100B40008F929F92AF92BF92CF92DF92EF92FF92DD
:100B50000F931F930E94A00C0E94881506E010E0DE
:100B600020E030E04CE350E060E070E08FE895E09A
:100B70000E940E144CE050E060E070E08BEC95E0D9
:100B80000E949312812C912CA12CB12C6501E12C97
:100B9000F12C0AE010E020E030E047ED55E061E0A4
:100BA00080917F02909180020E94AE151F910F915B
:100BB000FF90EF90DF90CF90BF90AF909F908F907D
:100BC000089523E732E0FC01318320830C94650F04
:100BD0002BE732E0FC01318320830C94E105CF93B5
:100BE000DF93EC010E94E105CE01DF91CF910C94DF
:100BF0007C25CF93DF93EC010E94E805CE01DF91C5
:100C0000CF910C947C25CF93DF93EC01FB012081E5
:100C100031812A303105D1F030F4215031092230B0
:100C20003105E8F016C02B30310599F40E94810D92
:100C3000882311F05A9801C05A9AC258DF4F888110
:100C4000811102C00E94890D188209C00E947D0D89
:100C500006C083E69FE09D838C8383E001C080E033
:100C6000DF91CF910895CF93DF93EC01DB018D915C
:100C70009C9101978F30910538F58A5A9F4FFC015E
:100C80000C94F2271FAE1EAE40E058E0BE01CE012C
:100C9000C4960E9419151EC0CE01C4960E947A15F2
:100CA00019C0DE01A259BF4F1C928EE696E008C023
:100CB0008FE69AE005C08FEC99E002C089E199E0E7
:100CC0009D838C8382E007C083E096E09D838C83C4
:100CD00083E001C080E0DF91CF910895CF93DF934F
:100CE000EC01FB01808191818430910509F458C0A9
:100CF00088F481309105A1F0029709F04BC0CE0134
:100D00004C960E947A152F9A60E070E08AE00E946B
:100D1000DF1C46C08E309105C1F10F97E9F03AC053
:100D20002F9885B190E4892785B980E092E09FA350
:100D30008EA340E052E0BE01CE014C960E941915F0
:100D40001FAE1EAE40E058E0BE01CE01C4960E9428
:100D500019151092EB0524C0FE01E259FF4F808166
:100D6000823084F04E9B03C089E199E007C04C9B20
:100D700003C08FEC99E002C08FE69AE09D838C83DC
:100D800082E00FC087EF9AE0F9CF85B190E4892720
:100D900085B906C087EF9AE09D838C8383E001C00C
:100DA00080E0DF91CF910895EF92FF920F931F9310
:100DB000CF93DF93EC01FC01E159FF4F81E0808389
:100DC000799710821182128213823C9610821182CE
:100DD000128213823E961082118212821382B8967A
:100DE00092E39083319694E69083FF974FEF5FEF05
:100DF000BA01408351836283738334964083518365
:100E000062837383B096808364E070E0CE010E94B9
:100E1000291265E070E0CE010E94291266E070E0C0
:100E2000CE010E94291267E070E0CE010E942912D3
:100E300068E070E0CE010E94291269E070E0CE0106
:100E40000E9429126AE070E0CE010E9429128AE015
:100E500090E09BAB8AAB4AE050E0BE01CE018896A1
:100E60000E94191580E094E19B8F8A8F40E054E145
:100E7000BE01CE0140960E94191586E896E00E94B8
:100E80005405FE01EA59FF4FAA2797FDA095BA2FF6
:100E900080839183A283B38386E896E00E946B05EA
:100EA000FE01E659FF4FAA2797FDA095BA2F808330
:100EB0009183A283B38386E896E00E949A05892BEA
:100EC00049F57E0100E010E0B80186E896E00E9456
:100ED0008505F701E158FF4FAC01662757FD609586
:100EE000762F40835183628373830F5F1F4F84E0AB
:100EF000E80EF11C0430110539F74E9B03C089E15F
:100F000099E00AC04C9B03C08FEC99E005C08FE6C6
:100F10009AE002C087EF9AE09D838C8382E0DF91A4
:100F2000CF911F910F91FF90EF9008954F925F9294
:100F30006F927F92AF92BF92CF92DF92EF92FF9229
:100F40000F931F93CF93DF93CDB7DEB729013A01FB
:100F5000621B730B840B950B29893A894B895C8939
:100F60002A193B094C095D09298B3A8B4B8B5C8B09
:100F70009B01AC0169897A898B899C890E94A12790
:100F8000E418F50806091709A80197010E94D3275C
:100F90002A0D3B1D4C1D5D1DCA01B901DF91CF918A
:100FA0001F910F91FF90EF90DF90CF90BF90AF9087
:100FB0007F906F905F904F900895EF92FF920F9304
:100FC0001F93CF93DF937B01EB01C059DF4F8B0160
:100FD00009581F4F488159816A817B81F8018081BE
:100FE0009181A281B381481759076A077B0761F491
:100FF0009C818481981308C09D818581981304C0C9
:101000009E8186819817B1F0288139814A815B8160
:101010006C817D818E810E94FC0CF701E258FF4FAC
:1010200081E0808387E0FE01D80101900D928A95CE
:10103000E1F713C00E94850D882379F0288139815A
:101040004A815B816C817D818E81DF91CF911F917F
:101050000F91FF90EF900C94FC0CDF91CF911F91BA
:101060000F91FF90EF9008954F925F926F927F9251
:10107000AF92BF92CF92DF92EF92FF920F931F93A6
:10108000CF93DF93EB010E94270D6B017C015E0182
:1010900022E6A20EB11CF50180819181A281B3816B
:1010A000A7019601281B390B4A0B5B0BCA01B9013A
:1010B0000E94B22620E030E040E85EE30E943E2736
:1010C0002B013C018E010A5A1F4FFE01E159FF4FCF
:1010D0006081772767FD7095872F972F0E94B22632
:1010E0009B01AC01C301B2010E943E27F80120819F
:1010F0003181428153810E941B26F80160837183F4
:1011000082839383F501C082D182E282F382065EFC
:101110001F4F0E947F26F80160837183828393832F
:10112000BE01CE01DF91CF911F910F91FF90EF9003
:10113000DF90CF90BF90AF907F906F905F904F9077
:101140000C94DD07CF92DF92EF92FF920F931F93E3
:10115000CF93DF93EB010E943C0D9C01442737FDA8
:101160004095542F7E018AE5E80EF11CF70180813D
:101170009181A281B3818E010A5A1F4F2817390726
:101180004A075B07D1F1BE01625A7F4FFB018081A4
:101190009181A281B381281739074A075B0769F15A
:1011A000F70180839183A283B383FB012083318382
:1011B000428353833896C080D180E280F380349696
:1011C00060817181828193816C197D098E099F09EB
:1011D0000E94A12720E034E040E050E00E94D327A5
:1011E0002C0D3D1D4E1D5F1DCA01B9010E94B22686
:1011F000F80160837183828393837E01F0E7EF0EB1
:10120000F11CF80160817181828193810E947F26A7
:10121000F7016083718382839383BE01CE01DF91E6
:10122000CF911F910F91FF90EF90DF90CF900C9492
:10123000DD074F925F926F927F92AF92BF92CF92F3
:10124000DF92EF92FF920F931F93CF93DF93EC0106
:101250008B01FB01808191818930910519F138F46E
:101260008130910581F0029709F46EC067C08D301E
:10127000910599F00E9709F061C0C956DF4F88813A
:101280000E94650D61C02F986FE070E08AE00E94B7
:10129000DF1CCA58DF4F188257C0BE01CE010E9422
:1012A000A20852C07E01FCE1EF0EF11CC7010E94B2
:1012B0007315892B09F048C0F80184818E01095605
:1012C0001F4FF8018083843030F064EE71E080E2DB
:1012D00091E00E948D0DF8018081FE01EA5AFF4FD6
:1012E0004080518062807380A82EB12C6E01F4E0A2
:1012F0008F9FC00CD11C11248FE7C80ED11CC301D5
:10130000B2010E947F26F6016083718382839383FA
:10131000C301B2010E947F26A50186E896E00E94E3
:101320007E05F80180810E944D0D1FA21EA240E0A3
:1013300052E0BE01C7010E94191506C083E396E082
:101340009D838C8383E001C080E0DF91CF911F916A
:101350000F91FF90EF90DF90CF90BF90AF907F9074
:101360006F905F904F9008950F931F93CF93DF93EB
:10137000EB018B0101571F4FC8010E942A04FE0197
:10138000EC58FF4F808360E0C8010E947204BE01E8
:10139000CE01DF91CF911F910F910C94A2080F9372
:1013A0001F93CF93DF93EC01FB0180819181823009
:1013B0009105C9F170F5019709F05CC06FEF70E01D
:1013C0008AE00E94DF1C2F9AFE01EA58FF4F82E05C
:1013D00080838E0100591F4FB09760817181828197
:1013E00093810E947F26F8016083718382839383B7
:1013F0003596DE01A756BF4F8C918083B3966081EE
:10140000772767FD7095CE0181579F4F0E940E058B
:1014100016C089309105A9F00D9761F5BE01CE0186
:101420000E94B4090CC08E0101571F4FC8010E94D1
:101430006904C8010E942A04C856DF4F888380E0EF
:101440001EC0FB010481112707FD10950430110512
:1014500034F066E472E080E291E00E948D0D89E153
:10146000809F800D1124FE01E756FF4F8083CB58EB
:10147000DF4FE4CF83E396E09D838C8383E0DF91AD
:10148000CF911F910F9108950F931F93CF93DF93E7
:10149000EB018B0100591F4FFB01EA5AFF4F60819E
:1014A0007181828193810E947F26F801608371831C
:1014B00082839383015E1F4FC8010E942A04FE01AC
:1014C000EC58FF4F808360E0C8010E947204BE01A7
:1014D000CE01DF91CF911F910F910C94DD07EF9218
:1014E000FF920F931F93CF93DF93EC01FB01808159
:1014F00091818230910581F128F5019709F05BC057
:101500006FEF70E08AE00E94DF1C2F9AFE01EA581C
:10151000FF4F81E080838E0100591F4FB09760819B
:101520007181828193810E947F26F801608371839B
:101530008283938362E370E0CE0181579F4F0E94C4
:101540000E050FC08930910571F00D97A1F5BE0110
:10155000CE010E94440A05C0CE0181579F4F0E94D0
:10156000690480E02DC0FB01E480FF24E7FCF094D7
:10157000F4E0EF16F10434F06AE172E080E291E009
:101580000E948D0D8E010A5A1F4FC701880F991FA7
:10159000880F991F8C0F9D1FFC01E158FF4F608140
:1015A0007181828193810E94B226F80160837183E8
:1015B00082839383D6CF83E396E09D838C8383E0FD
:1015C000DF91CF911F910F91FF90EF900895FC0153
:1015D000E159FF4F6130710529F06230710521F446
:1015E00080E503C088E201C088E080830895CF933E
:1015F000DF93EC01DB01ED91FC913197ED30F105CA
:1016000008F062C0EB59FF4F0C94F2272F9A60E06C
:1016100070E08AE00E94DF1CFE01EA58FF4F108252
:101620000E94270DFE01EE59FF4F60837183828374
:1016300093830E943F0DBC01CE010E94E70A4AC07D
:10164000BC010E94340846C0FC01E259FF4F808172
:1016500091E0980F90837897811112C06081718119
:10166000828193810E947F26FE01EA59FF4F6083A9
:1016700071838283938386E896E00E94500511C0AF
:1016800060817181828193810E947F26FE01E659EB
:10169000FF4F608371838283938386E896E00E9484
:1016A00067058EE696E09D838C8382E014C0C15965
:1016B000DF4F88E207C0C159DF4F80E503C0C15941
:1016C000DF4F88E0888306C083E096E09D838C83AB
:1016D00083E001C080E0DF91CF91089586E896E035
:1016E0000E94210583E69FE09093EF058093EE052D
:1016F00084ED96E09093F1058093F0058BE792E0FE
:101700009093ED058093EC056BE070E08CEF95E035
:101710000E9453156EE070E088E096E00E94531539
:101720006DE070E084E196E00E9453156FE070E098
:1017300080E296E00E94531510925C0610925D06BE
:1017400010925E0610925F0610926006109261067B
:10175000109262061092630610926406109265065B
:10176000109266061092670610926806109269063B
:1017700008958CEE95E00C94E805DC01ED91FD9167
:101780008081ED91FD919081ED91FD916C9163705F
:101790008E2309F064609F2309F06860EAEDFBE0A6
:1017A000E60FF11D659565956D936D917D918D9118
:1017B0009D91099423C01AC012C016C010C01EC04B
:1017C00009C014C013C006C019C009C00DC007C0AD
:1017D0000DC014C062507040804090400BC06150FA
:1017E00070408040904006C06E5F01C06F5F7F4FC9
:1017F0008F4F9F4F9E938E937E936E93089580910B
:10180000D8069091D9060C94BD0B8091D406909186
:10181000D5060C94BD0B1F920F920FB60F92112498
:101820002F933F934F935F936F937F938F939F93E8
:10183000AF93BF93CF93DF93EF93FF930E949C12DC
:101840008FB18170C82F20E0D22F809189069091AE
:101850008A06C817D90781F0209719F064E070E074
:1018600002C065E070E084E00E942A130E94C51463
:10187000D0938A06C093890629B1C22FC075D0E0E3
:101880008091060190910701C817D907A9F024FF9C
:1018900003C068E070E007C026FF03C067E070E0A7
:1018A00002C066E070E084E00E942A130E94C51422
:1018B000D0930701C09306018FB1827790E0C09169
:1018C0008706D09188068C179D0719F1C827D9275C
:1018D000C823D92390938806809387062097C9F060
:1018E00069E070E085E00E942A13C6FF03C0FC0196
:1018F00014820DC0C5FF02C021E007C0C4FF02C0B2
:1019000022E003C0C1FF03C023E0FC0124830E9446
:10191000C51488E996E00E946802FF91EF91DF917B
:10192000CF91BF91AF919F918F917F916F915F9177
:101930004F913F912F910F900FBE0F901F901895D0
:1019400060E084E00E94B31D60E08CE00E94B31D63
:1019500060E087E10E94B31D60E083E10E94B31D57
:1019600060E084E10E94B31D60E085E10E94B31D48
:1019700060E086E10E94B31D61E083E00E94B31D38
:1019800061E085E00E94B31D61E086E00E94B31D26
:1019900061E089E00E94B31D61E080E00E94B31D18
:1019A00061E08BE00E94B31D61E08AE00E94B31DFC
:1019B00061E087E10E94EC1D479A40E855E260E053
:1019C00070E08BEE96E00E94131F88E996E00C947D
:1019D0000E0482E08093C00087E08093C10080E421
:1019E000809372001092BF001092BE008EE0809330
:1019F000CF00089578940895CF93DF93CDB7DEB7E5
:101A000027970FB6F894DEBF0FBECDBF29833A8368
:101A10004B835C836D837E838F8387E996E00E948E
:101A2000110F811104C087E996E00E94D80EBE0113
:101A30006F5F7F4F87E996E00E94140F27960FB6DD
:101A4000F894DEBF0FBECDBFDF91CF910895809196
:101A50009606823030F4F8948BE896E00E94BD0B35
:101A600001C0F8946091920670919306809194065B
:101A7000909195067894089582E10C94AE1C89B1FA
:101A800084FD08C0829586958695837091E08927AC
:101A9000817001C082E090E00895813059F01CF41B
:101AA000882331F00895823049F0833061F0089541
:101AB000589A08956FEF70E085E003C06FEF70E013
:101AC00086E00C94DF1C2D9A0895813059F01CF4A7
:101AD000882331F00895823049F0833061F0089511
:101AE0005898089560E070E085E003C060E070E021
:101AF00086E00C94DF1C2D98089587E996E00C94FD
:101B0000040F87E996E00C94300F87E996E00C9477
:101B1000110F87E996E00C94D20EF8942D9A589AFA
:101B2000469A5F9A0C9400000895CF93DF9388E95A
:101B300096E00E94670267E070E087E996E00E9405
:101B4000E40E62E082E00E94B31D62E081E00E9448
:101B5000B31DEFE9F3E0E491F0E0EE0FFF1FE45472
:101B6000FC4F8591949190938C0680938B06E0E8CE
:101B7000F3E0E491E0938F06EEE9F3E0E491F0E026
:101B8000EE0FFF1FE454FC4F8591949190938E06C5
:101B900080938D06EFE7F3E0E491E09390061092D6
:101BA000920610929306109294061092950680ED7C
:101BB00097E00E944D1CE0918B06F0918C0690817D
:101BC00080918F06982381E009F480E0E0918D06F2
:101BD000F0918E06908120919006922309F0826008
:101BE00080939106CBE8D6E0D093D506C093D40677
:101BF00041E050E065E07CE081E00E94871A81E0EE
:101C000080939606D093D906C093D80641E050E061
:101C10006FEF7BE083E00E94871A8091960690E048
:101C2000019680939606DF91CF910895CF92DF922F
:101C3000EF92FF920F931F93CF93DF937C016A0182
:101C4000811524E09207B0F4840F951F811594400C
:101C500088F4EB0100E010E00C151D054CF46991CF
:101C6000C8018E0D9F1D0E944E2A0F5F1F4FF4CF9B
:101C700081E001C080E0DF91CF911F910F91FF9033
:101C8000EF90DF90CF900895CF92DF92EF92FF9286
:101C90000F931F93CF93DF938B017A01811524E07B
:101CA0009207C8F49C01240F351F2115344098F485
:101CB000EB016C01C61AD70ACE01801B910B8E1561
:101CC0009F053CF4C6018C0F9D1F0E94462A8993F4
:101CD000F3CF81E001C080E0DF91CF911F910F91A0
:101CE000FF90EF90DF90CF900895CF93DF9300D0D7
:101CF000CDB7DEB77A83698342E050E0BE016F5F03
:101D00007F4F0E94160E0F900F90DF91CF91089594
:101D100042E050E00C94440ECF93DF9300D01F922A
:101D2000CDB7DEB7CE0103960E94210580E28983FC
:101D30001A82CE0103960E943D058430910540F43D
:101D4000FC01E957FD4F2981287F8081822B8983FF
:101D5000CE0103960E949D058330910540F4FC015D
:101D6000E557FD4F2981277D8081822B8983CE0114
:101D700003960E9426059C01215031092235310528
:101D800010F48093DE0621E0AE014F5F5F4F66E006
:101D90008BED96E00E945C170F900F900F90DF91F3
:101DA000CF910895FC0110828BED96E00C941018F1
:101DB000CF93DF93EC018BED96E00E94F71781E063
:101DC0008883DF91CF9108951F93CF93DF93EC0128
:101DD000162F88E091E09093E1068093E0068BED6A
:101DE00096E00E949C1661E872E08BED96E00E94FE
:101DF0008B171093DF06CE010E948C0ECE01DF916F
:101E0000CF911F910C94D80ECF93DF93EC010E94D9
:101E1000D20ECE010E948C0ECE01DF91CF910C9498
:101E2000D80EFC0180810895CF93DF9300D0CDB709
:101E3000DEB78BED96E069837A830E94481769814B
:101E40007A81811108C08BED96E00F900F90DF91A1
:101E5000CF910C94A0170F900F90DF91CF91089520
:101E6000CF93DF93CDB7DEB72A970FB6F894DEBFD6
:101E70000FBECDBF85E0E8E2F1E0DE0111960190F2
:101E80000D928A95E1F725E0AE014A5F5F4F60E170
:101E90008BED96E00E94091745E050E0BE016F5FB0
:101EA0007F4FCE0106960E94212A21E0892B09F05E
:101EB00020E0822F2A960FB6F894DEBF0FBECDBF6A
:101EC000DF91CF91089581E0089522E932E0FC018D
:101ED00031832083089522E932E0FC01318320839D
:101EE0000C947C25CF92DF92EF92FF920F931F9379
:101EF000CF93DF93CDB7DEB72C970FB6F894DEBF44
:101F00000FBECDBF8C016B01DC011296ED90FC90F1
:101F1000139714968D919C911597892B29F0B3E610
:101F2000EB16BFE0FB0631F061E970E08DE891E06F
:101F30000E948D0DD8011496ED91FC911597B60174
:101F4000C8010995823031F064E970E08DE891E0D4
:101F50000E948D0DD8011496ED91FC911597FA838E
:101F6000E98366E972E0C8010995D12CD80114967D
:101F7000ED91FC911597EE15FF0589F0D394AD2DE9
:101F8000AA0FBB0B81E090E08C0F9D1FA80FB91F1B
:101F9000ED93FC9366E972E0C8010995E7CF89816A
:101FA0009A8115969C938E931497B5E0BD1534F4E1
:101FB0006AEA70E08DE891E00E948D0DED2DEE0F44
:101FC000FF0B81E090E08C0F9D1FE80FF91F01903F
:101FD000F081E02D6AE972E0C8010995DA94D7FE34
:101FE000EDCFE980FA8062EA72E0C801F701099555
:101FF000823009F4AFCFD8011396FC92EE9212977B
:102000001596FC92EE9214972C960FB6F894DEBFBC
:102010000FBECDBFDF91CF911F910F91FF90EF9039
:10202000DF90CF9008956F927F928F929F92AF92A0
:10203000BF92CF92DF92EF92FF920F931F93CF93B5
:10204000DF93CDB7DEB72C970FB6F894DEBF0FBE87
:10205000CDBF8C016B01DC011296ED90FC901397C3
:1020600014968D919C911597E816F90631F069EC5C
:1020700070E08DE891E00E948D0DF801A480B5809C
:10208000B601C801F5010995843029F466E972E0CA
:10209000C801F5010995833081F3823009F033C11D
:1020A000D80114968D909C9015979A828982FC8213
:1020B000EB82EA14FB0491F06EE972E0C801F701CB
:1020C0000995811105C066E972E0C801F70109951B
:1020D000D8011496ED90FC901597EBCFE814F90415
:1020E000D1F066E972E0C801F4010995D8011496AF
:1020F0006D907C901597E614F70491F066E972E014
:10210000C801F7010995D8011496CD90DC90159778
:10211000C614D70439F46EE972E0C801F7010995D5
:10212000F12C86C0C814D90441F46EE972E0C801EC
:10213000F7010995FF24FA947BC07C826B8266E9E3
:1021400072E0C801F3010995FF24F394833039F557
:10215000EE24E394EF0CD8011496ED91FC911597C1
:10216000AE2DAA0FBB0B81E090E08C0F9D1FA80F36
:10217000B91FED93FC93EA15FB0559F495E09E1504
:102180000CF056C065E271E08DE891E00E948D0D83
:102190004FC066E972E0C8010995FE2CD7CF80E0F8
:1021A000811146C0A5E0AF1534F460E371E08DE81D
:1021B00091E00E948D0D6EE972E0C801F50109956C
:1021C0002F2DE22FEE0FFF0B81E090E08C0F9D1F73
:1021D000E80FF91F808191812150C816D90619F1A5
:1021E00027FFEFCF6EE972E0C801F6010995811172
:1021F00005C066E972E0C801F6010995D801149698
:10220000CD90DC9015972F2DE22FEE0FFF0B81E084
:1022100090E08C0F9D1FE80FF91F80819181215064
:10222000C816D90611F4F22E03C027FFEDCFDACF7E
:10223000F7FC12C0EF2DEE0FFF0BA1E0B0E0AC0FEA
:10224000BD1FEA0FFB1F0190F081E02D6AE972E0EB
:10225000C8010995FA94ECCFE980FA80F801F5827B
:10226000E48262EA72E0C801F7010995823009F060
:102270004AC0D8011496ED91FC911597FA83E98331
:1022800066E972E0C8010995D12CD8011496ED9148
:10229000FC911597EE15FF0589F0D394AD2DAA0F8B
:1022A000BB0B81E090E08C0F9D1FA80FB91FED9331
:1022B000FC9366E972E0C8010995E7CF89819A81AC
:1022C00015969C938E931497B5E0BD1534F467E88A
:1022D00071E08DE891E00E948D0DED2DEE0FFF0B6A
:1022E00081E090E08C0F9D1FE80FF91F0190F081B5
:1022F000E02D6AE972E0C8010995DA94D7FEEDCFC6
:10230000E980FA80AECFD8011396FC92EE92129734
:102310001596FC92EE9214972C960FB6F894DEBFA9
:102320000FBECDBFDF91CF911F910F91FF90EF9026
:10233000DF90CF90BF90AF909F908F907F906F90E5
:102340000895FF920F931F93CF93DF93EC018B01BE
:10235000FFB6F894FB018281882319F083818F5F97
:1023600083838E819F81892B69F41F830E83EF8580
:10237000F0E0EE5EFD4FE49180919A068E2B809303
:102380009A0623C08D85811106C061EB72E08DE84D
:1023900091E00E948D0D8B8528859985E22FF92F7C
:1023A000E80FF11DE80FF11D118300838B8581116A
:1023B00002C08A858B878B8581508B878D85815064
:1023C0008D879E85891708F48E87FFBEDF91CF9198
:1023D0001F910F91FF9008951F93CF93DF93EC010E
:1023E0001FB7F8948E819F81892B31F460ED72E0E4
:1023F0008DE891E00E948D0D8E819F815D856A85BB
:102400005617B1F04C8538852985E32FF22FE40F5C
:10241000F11DE40FF11D208131813F832E83411195
:1024200001C06C872C8521502C875F5F5D870CC0B5
:102430001F821E82EF85F0E0EF52FE4FE491209163
:102440009A062E2320939A061FBFDF91CF911F91EA
:1024500008950F931F93CF93DF93EB01FC01478502
:10246000042F10E064307105A4F020919D06309196
:102470009E06621773076CF44150483050F4D8013F
:10248000AA0FBB1FA054B94F2D913C9128173907B3
:1024900031F065E473E08DE891E00E948D0DF80164
:1024A000E057FE4F84919FB7F894F801EE5EFD4F20
:1024B0000491A0919F06B091A006AC0FBD1FA80F7C
:1024C000B11D8C91802B8C939FBFDF91CF911F9179
:1024D0000F9108950F931F93CF93DF93EC010F8516
:1024E0008FEF800F10E0883048F4D801AA0FBB1F8F
:1024F000A054B94F8D919C91892B31F063E674E023
:102500008DE891E00E948D0D8FB7F894F801EE0FE1
:10251000FF1FE054F94FD183C0838FBFDF91CF916C
:102520001F910F9108959093A00680939F0650935A
:102530009E0640939D060895FF920F931F93CF939D
:10254000DF93FFB6F894C0919B06D0919C0600E003
:1025500010E0209709F44DC088859985009769F4AB
:1025600080919B0690919C06C817D90721F101150F
:10257000110589F568E376E02AC001979987888775
:10258000892B91F58A859B85009711F0998788871B
:10259000FFBEBE018E819F810E94A111FFB6F894FB
:1025A00088859985892B01F580919B0690919C06E1
:1025B000C817D90739F48C819D8190939C0680932C
:1025C0009B060EC00115110531F46BE576E08DE830
:1025D00091E00E948D0D8C819D81F801958384830B
:1025E0008B8181508B8301C08E010C80DD81C02DD9
:1025F000B0CFFFBEDF91CF911F910F91FF90089553
:10260000FF920F931F93CF93DF93EC01FFB6F894E3
:102610000C811D8101151105A9F0F80180819181BE
:102620009D838C838885811106C06CE776E08DE8F8
:1026300091E00E948D0D8885815088879985891742
:1026400008F48987FFBEC801DF91CF911F910F91D8
:10265000FF900895EF92FF920F931F93CF93DF9314
:10266000D82F8B01C0E0FAE0EF2EEC9EF001112490
:10267000EE55F94F8681FF24F394FC0E8D1760F41C
:10268000CF2D8091A106F81680F36DE275E08DE8FC
:1026900091E00E948D0DE9CFCF010E940013EC0163
:1026A000009731F469E375E08DE891E00E948D0DAB
:1026B00019830883FA821B82CE01DF91CF911F918B
:1026C0000F91FF90EF9008958F929F92AF92BF92DB
:1026D000CF92DF92EF92FF920F93CF93DF9300D0D0
:1026E00000D0CDB7DEB76C017B016115710529F013
:1026F000223031054105510570F46AEA76E08DE833
:1027000091E029833A834B835C830E948D0D5C8129
:102710004B813A812981D6011596FC92EE9214974D
:1027200082E016968C93812C912C54018394D601CF
:1027300016968C91801748F48E5FF6018683FFEF22
:102740008F1A9F0AAF0ABF0AF2CF90E0A0E0B0E074
:10275000281739074A075B0770F467EB76E08DE8C6
:1027600091E029833A834B835C830E948D0D5C81C9
:102770004B813A812981F6018681BA01A901481B62
:1027800051096109710981E087830480F581E02D99
:10279000880C991CD60116968C9190E0A0E0B0E0D0
:1027A000481759076A077B07B0F0E80DF91DDF01EC
:1027B000A819B909ED93FC93D60116968C9116973A
:1027C000481B51096109710917968C9117978F5F02
:1027D00017968C93DFCF11821082D60117968C91B9
:1027E000179718968C93189719968C93199711969A
:1027F000FC92EE921396FC93EE9312970F900F902B
:102800000F900F90DF91CF910F91FF90EF90DF909D
:10281000CF90BF90AF909F908F9008958F929F928E
:10282000AF92BF92CF92DF92EF92FF920F931F93DE
:10283000CF93DF93EC014A015B016801790180913C
:10284000A106833030F063E575E08DE891E00E94E9
:102850008D0D8091A1068823C9F090E001972AE0B0
:10286000289FF001299FF00D1124EE55F94F868124
:1028700090E0A0E0B0E08C159D05AE05BF0530F0FE
:1028800067E575E08DE891E00E948D0D8091A106CD
:102890002AE0829FC00111240C2DA5019401BE01E4
:1028A0008E55994F0E9464138091A1068F5F80938B
:1028B000A106DF91CF911F910F91FF90EF90DF90D4
:1028C000CF90BF90AF909F908F9008950F931F93DC
:1028D000CF93DF93EC018B0198858F81981730F0AF
:1028E00065EE76E08DE891E00E948D0D88819981FA
:1028F0000817190728F08A819B818017910730F407
:1029000066EE76E08DE891E00E948D0D2FB7F89489
:102910008C819D81F801918380831D830C83888540
:102920008F5F88872FBFDF91CF911F910F910895FF
:102930001F93CF93DF93EC018A81882311F18FB726
:10294000F8949B81923020F091509B838FBF19C0E7
:102950001A8111508FBF8091A106181730F06DEACF
:1029600074E08DE891E00E948D0D2AE0129FC00175
:102970001124BE018E55994FDF91CF911F910C9478
:102980006614DF91CF911F910895FF920F931F93CB
:10299000CF93DF93EC012881398180919D0690913E
:1029A0009E062817390734F06DE775E08DE891E051
:1029B0000E948D0D9FB7F8948A81882319F08B812E
:1029C0008F5F8B839FBFE0919F06F091A006888167
:1029D0009981E80FF91FF080FF2019F1EF2DF0E049
:1029E000ED5AFD4F049110E0F801EF52FE4FE491D3
:1029F000FE22000F111FF801E054F94F80819181F0
:102A0000892B31F464E975E08DE891E00E948D0D29
:102A1000F801E054F94FBE01808191810E94A1111B
:102A2000DBCFCE01DF91CF911F910F91FF900C94DE
:102A30009814EF92FF920F931F93CF93DF93EC01C3
:102A40008B017A014115510559F06115710541F06D
:102A500088859985892B21F488819981049734F49C
:102A60006DE077E08DE891E00E948D0D2FB7F8942E
:102A7000F986E8861F830E838B8181110CC08091BB
:102A80009B0690919C069D838C83D0939C06C0935B
:102A90009B0681E08B832FBFDF91CF911F910F9118
:102AA000FF90EF9008950F931F93CF93DF93EC0166
:102AB0008B011D821C821F821E82198618861B862E
:102AC0001A866430710534F465E377E08DE891E0AF
:102AD0000E948D0D198308831A821B82DF91CF918A
:102AE0001F910F9108952FB7F894FC01808591856F
:102AF0002FBF08954FB7F894FC0120853185232B13
:102B000021F01186108681E001C080E04FBF08955A
:102B100008950E94E90CF894E0919A06EE23D9F00A
:102B2000F0E0ED5AFD4FE491AE2FB0E0AA0FBB1FCD
:102B3000A054B94F0D911C91E09399067894C80167
:102B40000E94EC11EC01BC01C8010E941310CE01DF
:102B50000E949814E0CF0E94FA0CDDCF8F929F92D2
:102B6000AF92BF92CF92DF92EF92FF920F931F939B
:102B7000CF93DF93CDB7DEB76C01162F5A018FEFDD
:102B8000860F883010F4EF2831F062E179E08DE8AB
:102B900091E00E948D0DF60117821682B186A08603
:102BA000028713861486058706871787C6010E9449
:102BB0006A12B401C601DF91CF911F910F91FF906E
:102BC000EF90DF90CF90BF90AF909F908F900C943C
:102BD000720F0C948915CF93CFB7F8948091DA06D1
:102BE000811127C0EEEAF3E08491EFE8F3E09491DD
:102BF000E82FF0E0EE0FFF1FE852FC4FA591B491D3
:102C00008C91892321F461E081E10E94EC1D61E057
:102C100081E10E94B31D8CB580618CBD8CB5806450
:102C20008CBD61E08FE00E94B31D61E080E10E94F5
:102C3000B31D8091DA068F5F8093DA06CFBFCF9104
:102C40000895FC0188E0818387E0828381E08383AB
:102C500080E18483168215820895AF92BF92DF923D
:102C6000EF92FF920F931F93CF93DF931F92CDB7F5
:102C7000DEB77C01D62E8A015B018A2D8D19821761
:102C8000A8F4D70115968D919C911697F501619145
:102C90005F01DC01ED91FC910190F081E02D298331
:102CA0000995F80181938F012981E7CF0F90DF917A
:102CB000CF911F910F91FF90EF90DF90BF90AF9059
:102CC0000895CF92DF92FF920F931F93CF93DF93DC
:102CD0001F92CDB7DEB78C01F62E6B018C2D8F19AC
:102CE000841790F4D80115968D919C911697F60152
:102CF00061916F01DC01ED91FC910190F081E02D7B
:102D0000498309954981EACF0F90DF91CF911F91B7
:102D10000F91FF90DF90CF90089561E0FC018181D9
:102D20000C94EC1D60E0FC0181810C94EC1D61E0D1
:102D3000FC0182810C94EC1DCF93DF93EC0161E0E8
:102D400089810E94B31D61E08A810E94B31DCE017A
:102D50000E949216CE010E9497168D819E81DC0101
:102D6000ED91FC910280F381E02DDF91CF910994E8
:102D700060E0FC0182810C94EC1D0F931F93CF93B4
:102D8000DF9300D0CDB7DEB78C014A8369830E9400
:102D9000B816D80115968D919C911697DC01ED918E
:102DA000FC9169816F7160620190F081E02D09955D
:102DB000F80185819681DC01ED91FC910190F08113
:102DC000E02D4A81642F0995C8010F900F90DF9183
:102DD000CF911F910F910C949716CF93DF93EC0135
:102DE00018820E9492164BE060E0CE010E94BD1650
:102DF000CE010E948D1640E367E0CE01DF91CF91B6
:102E00000C94BD1621E0FC0120834AE060E00C94A4
:102E1000BD16EF92FF920F931F93CF93DF9300D0D5
:102E2000CDB7DEB77C018A012A8369830E94B81678
:102E3000D70115968D919C911697DC01ED91FC912F
:102E400069816F710190F081E02D09952A81A801B7
:102E5000B801C7010E942D16C7010F900F90DF9196
:102E6000CF911F910F91FF90EF900C949716CF93F5
:102E7000DF931F92CDB7DEB721E0AE014F5F5F4F0A
:102E800067E00E94091789810F90DF91CF91089523
:102E9000CF93DF93EC018881882341F0CE010E941B
:102EA0003717807329F0CE010E94ED1680E001C033
:102EB00081E0DF91CF910895EF92FF920F931F93DE
:102EC000CF93DF9300D0CDB7DEB77C018A012A8390
:102ED00069830E94B816D70115968D919C9116971B
:102EE000DC01ED91FC9169816F7160620190F0816C
:102EF000E02D09952A81422FB801C7010E94611671
:102F0000C7010F900F90DF91CF911F910F91FF900C
:102F1000EF900C9497160F931F93CF93DF93EC01D0
:102F20008B0125E0AB016AE00E945C1725E0A80157
:102F300060E1CE01DF91CF911F910F910C945C174E
:102F40000F931F93CF93DF93EC018B010E943717F0
:102F50008881882331F0CE010E9437178073C1F336
:102F60001882CE010E949216CE010E940217CE0155
:102F70000E94B8168D819E81DC01ED91FC9101903B
:102F8000F081E02D61EE0995CE010E949716CE01E9
:102F90000E94B8168D819E81DC01ED91FC9101901B
:102FA000F081E02D60EA09954C81B801CE010E94C4
:102FB0006116CE010E949716CE01DF91CF911F912D
:102FC0000F910C948D16CF93DF93EC010E94B816ED
:102FD0008D819E81DC01ED91FC910190F081E02DCD
:102FE00062EE0995CE01DF91CF910C949716CF93A5
:102FF000DF93EC014B8165E00E94BD164C8161E1DD
:10300000CE010E94BD164C8162E1CE010E94BD1628
:10301000CE010E94ED16CE01DF91CF910C94E31703
:10302000CF93DF93EC010E94921648E060E0CE015E
:10303000DF91CF910C94BD168BED96E00C94211688
:103040006EBD00000DB407FEFDCF8EB50895089546
:103050000E94EB158CB5837F8CBD8CB58C7F816015
:103060008CBD8DB58E7F8DBD08950F93FC01DC0165
:10307000AA5ABD4F11961C921E92159711967C93D9
:103080006E93108613964C9311972C9312960C9373
:1030900080E483838FE384831282199711961C92B4
:1030A0001E92129611961C921E92149781E08C9398
:1030B00080E090E0DF01A80FB91FA85ABD4F1D9214
:1030C0001C92029684369105A9F717820F910895F4
:1030D0000F930E9435180F910895FC0160870895A1
:1030E0008A5A9D4FFC01718360830895623348F4CE
:1030F000FC01E60FF11DE60FF11DE85AFD4F51836B
:1031000040830895F90121E03081341320E0DB0190
:103110003C913083DC01AB5ABD4F8C91381302C017
:1031200021111082822F08956F927F928F929F9229
:10313000AF92BF92CF92DF92EF92FF920F931F93C5
:10314000CF93DF93EC017B011D828B013C0185E075
:10315000680E711C5E01EBEAAE1AEDEFBE0A4E017D
:10316000FCEA8F1AFDEF9F0A6801CE18DF08930171
:10317000F5014081B801CE010E948218F8019191B9
:103180008F01911102C0882331F0F4012081921344
:10319000EBCF8111E9CFC601DF91CF911F910F9144
:1031A000FF90EF90DF90CF90BF90AF909F908F9067
:1031B0007F906F900895BF92CF92DF92EF92FF922F
:1031C0000F931F93CF93DF936C01B42E7901611598
:1031D000710519F4D9016D917C918B01E8014B2D9A
:1031E000B801C6010E949418892B29F40F5F1F4F64
:1031F00088818111F3CF8881882391F04B2DBE0106
:10320000C6010E949418FE01E80FF91F80818823EF
:1032100011F010823196D701ED93FC93CE0102C0DC
:1032200080E090E0DF91CF911F910F91FF90EF90A0
:10323000DF90CF90BF9008950F931F93CF93DF93AC
:10324000FC01E75BFD4F2081222339F1213031F46D
:10325000BC01675F7F4F22E0208302C060E070E026
:10326000EC01C65BDD4F28818C01045B1D4F2223DE
:1032700061F09C01225B3D4FFC01EC5AFD4F408107
:103280000E94DB18F80191838083F801808191818D
:10329000892B19F081E0888301C080E0DF91CF9114
:1032A0001F910F910895CF93DF93EC010E941C1999
:1032B000FE01E55BFD4F882371F0DE01A65BBD4F8B
:1032C00081E08C938083C45BDD4F88819981DF919D
:1032D000CF910C94032A108280E090E0DF91CF918F
:1032E00008952F923F924F925F926F927F928F92AA
:1032F0009F92AF92BF92CF92DF92EF92FF920F9385
:103300001F93CF93DF93CDB7DEB72B970FB6F8940B
:10331000DEBF0FBECDBF8C017C012FEAE21A2DEF7C
:10332000F20A5C0187EBA81A8DEFB80AD801AB5AF4
:10333000BD4FBD83AC83F801ED5AFD4FFF83EE8393
:10334000C8018A5A9D4F998788871A97BB87AA8791
:10335000F80187818111C1C0D7018D919C91DC0159
:10336000ED91FC910480F581E02D0995892B09F4FC
:10337000B4C0F70180819181DC01ED91FC91048062
:10338000F581E02D0995811592400CF0A2C0F7015E
:1033900080819181DC01ED91FC910480F581E02D2B
:1033A00009954C01A401B801675B7F4FF70180814B
:1033B00091810E94722068011401200E311EC80103
:1033C00006969B838A83280194EB491A9DEF590A3C
:1033D0004801A2EB8A1AADEF9A0A3801B6EB6B1AD4
:1033E000BDEF7B0AC214D30409F4B2CFF601E75B48
:1033F000FF4F80818983F50110822A813B81AC8156
:10340000BD814C91BE016F5F7F4FC8010E94821841
:103410002981EE81FF813081D80112969C9112970B
:10342000F801E90FF11D231316C0811114C0118694
:10343000992329F021E0F501208316961C92F801CA
:103440001282D2011D921C92F40111821082E1E0DD
:10345000D301EC9316C021879F5FD80112969C93ED
:10346000129714968C911497981758F012961C92F4
:10347000F20111821082D4011D921C9221E0F3010D
:103480002083D5018C91813001F5C8010E94531928
:10349000F8018183823390F4AA85BB852C91222385
:1034A00069F0FC01FF27E45DFE4FEE0FFF1FE00F08
:1034B000F11F0190F081E02D309731F4A885B98596
:1034C000ED91FC91309709F00995BFEFCB1ADB0A1B
:1034D00089CF812C82E0982E65CF2B960FB6F89479
:1034E000DEBF0FBECDBFDF91CF911F910F91FF9037
:1034F000EF90DF90CF90BF90AF909F908F907F9094
:103500006F905F904F903F902F9008950895853071
:1035100008F04CC0E82FF0E0EE0FFF1FE65FFE4F13
:10352000718360838230E1F018F4813069F004C067
:10353000833019F1843071F1809169008C7F842B84
:1035400080936900E89A089580916900440F551F9F
:10355000440F551F837F842B80936900E99A089557
:103560008091690034E0440F551F3A95E1F78F7C54
:10357000842B80936900EA9A08958091690026E07F
:10358000440F551F2A95E1F78F73842B80936900B0
:10359000EB9A089580916A0094E0440F551F9A9524
:1035A000E1F78F7C842B80936A00EE9A08951F9236
:1035B0000F920FB60F9211242F933F934F935F9367
:1035C0006F937F938F939F93AF93BF93EF93FF93EB
:1035D000E0910A01F0910B010995FF91EF91BF91E4
:1035E000AF919F918F917F916F915F914F913F919B
:1035F0002F910F900FBE0F901F9018951F920F9252
:103600000FB60F9211242F933F934F935F936F93B5
:103610007F938F939F93AF93BF93EF93FF93E0912B
:103620000C01F0910D010995FF91EF91BF91AF91C0
:103630009F918F917F916F915F914F913F912F91CA
:103640000F900FBE0F901F9018951F920F920FB6FC
:103650000F9211242F933F934F935F936F937F9318
:103660008F939F93AF93BF93EF93FF93E0910E01DE
:10367000F0910F010995FF91EF91BF91AF919F914B
:103680008F917F916F915F914F913F912F910F900B
:103690000FBE0F901F9018951F920F920FB60F92AA
:1036A00011242F933F934F935F936F937F938F9347
:1036B0009F93AF93BF93EF93FF93E0911001F0912D
:1036C00011010995FF91EF91BF91AF919F918F915A
:1036D0007F916F915F914F913F912F910F900FBE0E
:1036E0000F901F9018951F920F920FB60F921124F2
:1036F0002F933F934F935F936F937F938F939F93FA
:10370000AF93BF93EF93FF93E0911201F0911301F8
:103710000995FF91EF91BF91AF919F918F917F910B
:103720006F915F914F913F912F910F900FBE0F902E
:103730001F9018951F920F920FB60F9211242F937E
:103740003F938F939F93AF93BF938091E3069091A4
:10375000E406A091E506B091E6063091E20623E08A
:10376000230F2D3720F40196A11DB11D05C026E8B9
:10377000230F0296A11DB11D2093E2068093E3065C
:103780009093E406A093E506B093E6068091E706E1
:103790009091E806A091E906B091EA060196A11D74
:1037A000B11D8093E7069093E806A093E906B093D5
:1037B000EA06BF91AF919F918F913F912F910F900A
:1037C0000FBE0F901F9018952FB7F8946091E306E5
:1037D0007091E4068091E5069091E6062FBF08956A
:1037E0003FB7F8948091E7069091E806A091E9062A
:1037F000B091EA0626B5A89B05C02F3F19F00196A7
:10380000A11DB11D3FBF6627782F892F9A2F620F08
:10381000711D811D911D42E0660F771F881F991F42
:103820004A95D1F708958F929F92AF92BF92CF920F
:10383000DF92EF92FF926B017C010E94F01B4B0123
:103840005C01C114D104E104F104F1F00E947E2571
:103850000E94F01B681979098A099B09683E734028
:103860008105910570F321E0C21AD108E108F10841
:1038700088EE880E83E0981EA11CB11CC114D104EF
:10388000E104F10429F7DDCFFF90EF90DF90CF90B6
:10389000BF90AF909F908F9008958230910538F03F
:1038A000880F991F880F991F05970197F1F70895C1
:1038B000789484B5826084BD84B5816084BD85B50B
:1038C000826085BD85B5816085BDEEE6F0E08081D2
:1038D00081608083E1E8F0E01082808182608083F3
:1038E000808181608083E0E8F0E080818160808376
:1038F000E1E9F0E080818260808380818160808363
:10390000E0E9F0E0808181608083E1ECF0E080819B
:1039100084608083808182608083808181608083F5
:10392000E3ECF0E0808181608083E0ECF0E0808176
:1039300082608083E2ECF0E0808181608083EAE74E
:10394000F0E08081846080838081826080838081D8
:10395000816080838081806880830895823108F04F
:103960008251E82FF0E0ED5AFC4FE49180917B000A
:10397000E3FB222720F930E095E0220F331F9A95D0
:10398000E1F78F7D822B80937B00E770809114019B
:1039900020E4829FC0011124E82BE0937C008091F9
:1039A0007A00806480937A0080917A0086FDFCCF53
:1039B000809178002091790090E0922B08951F93D8
:1039C000CF93DF93182FEB0161E00E94B31D209786
:1039D00011F460E004C0CF3FD10539F461E0812FDC
:1039E000DF91CF911F910C94EC1DE12FF0E0E15A93
:1039F000FC4F449150E0FA013197EF30F10508F0A7
:103A00006CC0EE58FF4F0C94F22784B5806884BDDB
:103A1000C7BD68C084B5806284BDC8BD63C08091E5
:103A20008000806880938000D0938900C0938800D4
:103A300059C080918000806280938000D0938B0079
:103A4000C0938A004FC0809180008860809380007E
:103A5000D0938D00C0938C0045C080919000806809
:103A600080939000D0939900C09398003BC08091C0
:103A70009000806280939000D0939B00C0939A0046
:103A800031C080919000886080939000D0939D0019
:103A9000C0939C0027C08091C00080688093C000C4
:103AA0008091C0008F7B8093C000C093CF001AC06C
:103AB0008091C00080628093C000C093D00012C08B
:103AC0008091C20088608093C2008091C2008B7F89
:103AD0008093C200C093D20005C0C038D1050CF05D
:103AE0007DCF77CFDF91CF911F91089590E0FC01BA
:103AF0003197EF30F105B0F5EF57FF4F0C94F227F7
:103B0000809180008F7703C0809180008F7D8093AB
:103B10008000089580918000877FF9CF84B58F77EA
:103B200002C084B58F7D84BD0895809190008F7709
:103B300007C0809190008F7D03C080919000877FA7
:103B40008093900008958091C0008F7703C080918A
:103B5000C0008F7D8093C00008958091C200877F50
:103B60008093C2000895CF93DF9390E0FC01E25868
:103B7000FC4F2491FC01E356FC4F8491882349F1CA
:103B800090E0880F991FFC01E852FC4FA591B49179
:103B900086539C4FFC01C591D4919FB7611108C019
:103BA000F8948C91209582238C93888182230AC07B
:103BB000623051F4F8948C91322F309583238C939A
:103BC0008881822B888304C0F8948C91822B8C93FB
:103BD0009FBFDF91CF9108950F931F93CF93DF93F2
:103BE0001F92CDB7DEB7282F30E0F901E15AFC4F24
:103BF0008491F901E258FC4F1491F901E356FC4F0E
:103C000004910023C9F0882321F069830E94761D66
:103C10006981E02FF0E0EE0FFF1FE653FC4FA59106
:103C2000B4919FB7F8948C91611103C010958123D2
:103C300001C0812B8C939FBF0F90DF91CF911F917B
:103C40000F910895CF93DF931F92CDB7DEB76983AD
:103C5000DC01ED91FC910280F381E02D41E050E028
:103C6000BE016F5F7F4F09950F90DF91CF9108954F
:103C7000CF93DF93EC018C859D8597FF05C082E093
:103C80000E94A6219D878C878C859D85DF91CF9191
:103C9000089583E00C943A24FC018485958597FD72
:103CA00006C082E00E944E2190E00196089582E0D5
:103CB0000E944E2190E00895FC018485958597FD32
:103CC00005C02FEF3FEF35872487089582E00C94DD
:103CD000A621CF93DF93EC0180912001882331F05E
:103CE00083E00E94D7211816190634F081E090E095
:103CF0009B838A8380E090E0DF91CF910895FC015F
:103D000020812E5F208342E450E066EE73E080E87D
:103D10000C947222FC0121818081813A59F4213274
:103D200009F04BC047E050E069E171E080E00E949B
:103D300072225EC0813209F040C0233289F483814F
:103D400090E0982F88273281832BA0E0B0E0809309
:103D5000150190931601A0931701B09318010FC09D
:103D6000203239F467E070E089E191E00E94A322FB
:103D700009C0223221F482818093200103C02D7F6B
:103D80002032B1F580913B07811103C0E0E0F8E0FB
:103D900002C0EEEFFAE08091190190911A01A09112
:103DA0001B01B0911C01803B9440A105B10511F5A8
:103DB0008091200180FF03C01DC080E00895EE3F88
:103DC0002AE0F20731F0808191819093FF0A80937D
:103DD000FE0A87E797E7918380832BE088E190E0F4
:103DE0000FB6F894A895809360000FBE20936000F2
:103DF00081E0089588E10FB6F894809360001092F6
:103E000060000FBEA895EE3F8AE0F80739F0809178
:103E1000FE0A9091FF0A91838083EACF1092FF0AF5
:103E20001092FE0AE5CF2FEF3FEFFC013587248784
:103E300008951092EE061092ED0688EE93E0A0E051
:103E4000B0E08093EF069093F006A093F106B09354
:103E5000F20684EB92E09093EC068093EB068FEFF2
:103E60009FEF9093F8068093F7060895611571050A
:103E700081F0DB010D900020E9F7AD0141505109BF
:103E8000461B570BDC01ED91FC910280F381E02D84
:103E9000099480E090E00895DC01ED91FC91DB0154
:103EA00014964D915C9115976D917C910280F381F0
:103EB000E02D09940C94361FDC01ED91FC910190EA
:103EC000F081E02D099460EC72E00C94361F0F93A2
:103ED0001F93CF93DF93EC010E94361F8C01CE011C
:103EE0000E94631F800F911FDF91CF911F910F914F
:103EF00008958F929F92AF92BF92DF92EF92FF92BE
:103F00000F931F93CF93DF93CDB7DEB7A1970FB673
:103F1000F894DEBF0FBECDBF7C01F42FD52ECB01B0
:103F200019A2223008F42AE08E010F5D1F4F822E65
:103F3000912CA12CB12C6F2F7D2DA50194010E94F5
:103F4000B127F22FD32ECA01015011096A3014F49F
:103F5000E0E301C0E7E3E60FD801EC93232B242B29
:103F6000252B49F7B801C7010E94361FA1960FB64D
:103F7000F894DEBF0FBECDBFDF91CF911F910F919F
:103F8000FF90EF90DF90BF90AF909F908F9008953B
:103F9000CF92DF92EF92FF920F931F93CF93DF9315
:103FA000EC016A017B012115310579F4E881F98181
:103FB0000190F081E02D642FDF91CF911F910F913F
:103FC000FF90EF90DF90CF9009942A303105E9F40B
:103FD00077FF1AC06DE20E945C1F8C0144275527B1
:103FE000BA014C195D096E097F092AE0CE010E94D1
:103FF000791F800F911FDF91CF911F910F91FF903B
:10400000EF90DF90CF9008952AE0B701A601CE018E
:10401000DF91CF911F910F91FF90EF90DF90CF90A4
:104020000C94791F9A01AB01662757FD6095762F96
:104030000C94C81F0F931F93CF93DF93EC019A0149
:10404000AB01662757FD6095762F0E94C81F8C0133
:10405000CE010E94631F800F911FDF91CF911F91AE
:104060000F9108950F931F93CF93DF93EC010E945C
:10407000C81F8C01CE010E94631F800F911FDF912A
:10408000CF911F910F9108950F931F93CF93DF93BB
:10409000EC010E94E41B688779878A879B87E88107
:1040A000F9810680F781E02DCE01099597FF15C0B3
:1040B0000E94E41B088519852A853B85601B710BCE
:1040C000820B930B0C811D812E813F81601771073C
:1040D0008207930720F38FEF9FEFDF91CF911F911E
:1040E0000F910895CF92DF92EF92FF920F931F935B
:1040F000CF93DF937C016A01EB0100E010E00C1527
:104100001D0549F0C7010E94442097FD04C0899312
:104110000F5F1F4FF4CFC801DF91CF911F910F9117
:10412000FF90EF90DF90CF900895615030F0209194
:10413000F100FC0120830196F8CF289884E6809353
:1041400045070895409140075091410720913E074F
:1041500030913F0742175307B4F49091E8009570EF
:10416000E1F39091E80092FD19C08093F1008091F5
:1041700040079091410701968F739927892B19F475
:104180008EEF8093E800809140079091410701965F
:10419000909341078093400781E0089580E008955F
:1041A000CF92DF92EF92FF920F931F93CF93DF9303
:1041B0001F92CDB7DEB7082F162FF42E862F880F4B
:1041C0008E5F99830E94A22083E00E94A220E02EAD
:1041D000C02E9981D92E8C2D8E19811798F4F60155
:1041E000F7FE02C0849101C080810E94A220082FA6
:1041F00080E00E94A2208023FFEFCF1ADF0A811106
:10420000EACF01C081E00F90DF91CF911F910F9114
:10421000FF90EF90DF90CF9008958091D70081605C
:104220008093D70080EA8093D80089B5806189BDEA
:1042300089B5826089BD09B400FEFDCF61E070E000
:1042400080E090E00E94131C8091D8008F7C8061F8
:104250008093D8008091E000807F8093E0000895F3
:10426000CF93DF931F92CDB7DEB71982CE010196AF
:104270000E947F1E0E940626BE016F5F7F4F0E9434
:104280007F2589810F90DF91CF9108952FB7FC0191
:104290002083F89467706093E9000895CF93DF93CB
:1042A0001F92CDB7DEB7682FCE0101960E9446213E
:1042B0008091F20099819FBF0F90DF91CF91089577
:1042C000FF920F931F93CF93DF9300D0CDB7DEB74C
:1042D000F62E8A0190914407992311F057FF03C0ED
:1042E0008FEF9FEF2BC0682FCE0101967A830E943B
:1042F00046218091F20090E0A8017A818017910711
:104300000CF4AC01EF2DF72FF40E84E6FE1639F015
:104310002898809345079091F1009193F7CF41152C
:10432000510521F08091F200882321F089818FBF0F
:10433000CA0104C08BE68093E800F8CF0F900F907D
:10434000DF91CF911F910F91FF900895CF93DF934D
:104350001F92CDB7DEB741E050E0BE016F5F7F4FE7
:104360000E946021019719F4898190E002C08FEFCB
:104370009FEF0F90DF91CF910895CF93DF931F921E
:10438000CDB7DEB7682FCE0101960E9446219091ED
:10439000E800892F807295FF04C09091F20080E4BC
:1043A000891B99819FBF0F90DF91CF9108956F92E4
:1043B0007F928F929F92AF92BF92CF92DF92EF92B5
:1043C000FF920F931F93CF93DF931F92CDB7DEB76A
:1043D000782E7B01C42EB52E80914407882369F086
:1043E000042F152F8AEFD82E872D8072982E9AE3EE
:1043F000A92E872D8074882E11C08FEF9FEF57C094
:10440000872D0E94BD21682E81110CC0DA94A9F37A
:1044100061E070E080E090E00E94131C011511053E
:1044200079F73BC0282F30E0021713070CF4602EF9
:10443000672DCE0101960E9446218091E80085FFFC
:1044400029C0262D30E0021B130B992039F06A9405
:104450008FEF6816B1F01092F100F9CFF701862DB9
:1044600077FE07C0815058F094919093F1003196F7
:10447000F9CF815020F091919093F100FACFE20EA4
:10448000F31E8091E80085FF0FC00115110511F49E
:1044900081100AC089818FBFC1CF5D9884E6809367
:1044A00046078C2D9B2D03C0A092E800F3CF0F9000
:1044B000DF91CF911F910F91FF90EF90DF90CF9000
:1044C000BF90AF909F908F907F906F9008951092C3
:1044D000E900109241071092400790933F078093A4
:1044E0003E070895CF92DF92FF920F931F93CF93D1
:1044F000DF9300D0CDB7DEB7F82E8A016B0101152E
:104500001105B1F0F601F7FE02C0849101C080816F
:1045100049835A830E94A22001501109FFEFCF1A4C
:10452000DF0A49815A818111EACF8FEF9FEF01C0E5
:10453000CA010F900F90DF91CF911F910F91FF90C3
:10454000DF90CF900895BF92CF92DF92EF92FF92CB
:104550000F931F93CF93DF936C018B01EB013BEF24
:10456000B32E2097C1F07E01C134D1051CF020E4A8
:10457000E22EF12C8091E80082FFFCCFC8018C1B59
:104580009D0B6E2D8C0D9D1D0E949520B092E80014
:10459000CE19DF09E6CFC801DF91CF911F910F91AE
:1045A000FF90EF90DF90CF90BF9008951F920F92F1
:1045B0000FB60F921124DF92EF92FF920F931F9389
:1045C0002F933F934F935F936F937F938F939F931B
:1045D000AF93BF93EF93FF93CF93DF93CDB7DEB746
:1045E0006C97DEBFCDBF1092E9008091E80083FF99
:1045F00023C168E0CE0145960E94952082EF80930A
:10460000E8003D8937FF05C08091E80080FFFCCFBE
:1046100003C08EEF8093E800832F807609F0F0C00E
:104620002E894F89D88C21110CC0303829F4809103
:1046300043078093F10002C01092F1001092F10044
:10464000F4C0842F90E09D29213049F43111EDC050
:10465000019709F0EAC0809143078D7F0AC023309B
:1046600059F43111E2C0019709F0DFC0809143078E
:10467000826080934307D9C0253041F48091E800DF
:1046800080FFFCCF40684093E300CFC0263009F0A4
:104690008DC0EB8CFC8C22E0D2122CC080E090E02C
:1046A0000E9467220E94302199E08E010F5F1F4F08
:1046B000F801292F11922A95E9F79983DA8291E07E
:1046C0009E8390EA98879AEF9987209140073091CE
:1046D0004107275F3F4F3C832B838D83C7010E9497
:1046E000672249E050E0B80180E00E9472220E94F7
:1046F00030219BC0C7010E9467220E940626BE018E
:104700006B5E7F4F0E94A825009719F00CF08DC0BA
:1047100090C081E0D8120EC08B8D9C8D089719F443
:1047200081E080933D0780913D0781112FC06AE3AE
:1047300074E031C0E3E0DE127CC08F89882349F148
:10474000823029F440E860E188E594E01CC08130C3
:1047500029F440E86BE08CE494E015C0833009F064
:1047600068C00E9406268E010F5F1F4FB8010E948D
:10477000C725F80101900020E9F73197E01BF10B04
:1047800040E06E2FC8010E94D0204DC068E274E066
:1047900002C069E674E06115710509F44AC0FB01C5
:1047A000449150E080E80E9472223FC0273009F413
:1047B00040C0283021F481E08093F10036C02930D8
:1047C000A1F53370B1F5E2E2F1E081E021E036E3FA
:1047D0009081992361F08093E9002093EB009191FF
:1047E0009093EC003093ED008F5F873089F78EE770
:1047F0008093EA001092EA008F898093440715C0E5
:104800008B8D9C8D0E946722898D811105C0CE0100
:1048100045960E948A1E07C00E940626BE016B5E56
:104820007F4F0E94E625882321F08EEF8093E800D9
:1048300003C081E28093EB006C960FB6F894DEBF64
:104840000FBECDBFDF91CF91FF91EF91BF91AF919F
:104850009F918F917F916F915F914F913F912F9198
:104860001F910F91FF90EF90DF900F900FBE0F9070
:104870001F9018958093E9008091F200882319F029
:104880008AE38093E80008951F920F920FB60F926B
:1048900011242F933F934F935F936F937F938F9345
:1048A0009F93AF93BF93CF93EF93FF93C091E1009A
:1048B0008091E100837F8093E1008093E100C3FF5A
:1048C0000FC01092E90081E08093EB001092EC00A1
:1048D00082E38093ED001092440788E08093F0001B
:1048E000C2FF19C083E00E943A24809146078823C2
:1048F00039F080914607815080934607882389F1DB
:1049000080914507882339F0809145078150809335
:104910004507882341F1C4FF10C08091E2008E7EDC
:1049200081608093E2008091E1008F7E8093E100BE
:10493000809142078E7E806111C0C0FF16C08091B9
:10494000E2008E7E80618093E2008091E1008E7EA5
:104950008093E100809142078E7E816080934207C0
:1049600004C05D9ACDCF289AD6CFFF91EF91CF9119
:10497000BF91AF919F918F917F916F915F914F9177
:104980003F912F910F900FBE0F901F90189510928E
:10499000440710924307109242070E940D21809114
:1049A000E1008E7E8093E1008DE08093E200559AD5
:1049B000209AEEEFFFE7859194918B3F9C4D19F47F
:1049C00081E080933B070895FC01808191810C94E4
:1049D000AA28CF93DF93EC0188819981009711F089
:1049E0000E94AA28198218821D821C821B821A82A8
:1049F000DF91CF9108950F931F93CF93DF93EC0135
:104A00008B016F5F7F4F888199810E9439290097C0
:104A100031F0998388831B830A8381E001C080E0A1
:104A2000DF91CF911F910F910895CF93DF93EC0108
:104A300088819981892B29F08A819B818617970724
:104A400060F4CE010E94FB24882341F08C819D817B
:104A5000892B19F4E881F981108281E0DF91CF91EF
:104A60000895EF92FF920F931F93CF93DF93EC0182
:104A70007B018A01BA010E941525811104C0CE0173
:104A80000E94E92407C01D830C83B70188819981A6
:104A90000E94372ACE01DF91CF911F910F91FF9095
:104AA000EF900895FC011182108213821282158208
:104AB00014826115710559F0FB0101900020E9F79E
:104AC000AF0141505109461B570B0C9431250895F5
:104AD00008950E94581C0E9468258CE397E00E946C
:104AE000C7240E94A005C0E0D0E00E94E9152097ED
:104AF000E1F30E940000F9CF0C94AA280895EF92E8
:104B0000FF920F931F93CF93DF937B01FC01C28130
:104B1000D38100E010E0209781F0E881F9810280E4
:104B2000F381E02DB701CE01099597FD08C0080F6C
:104B3000191F0884D985C02DEECFC80102C08FEFA0
:104B40009FEFDF91CF911F910F91FF90EF9008950C
:104B50000F931F93CF93DF938B01FC01C281D3810D
:104B6000209771F0E881F9810480F581E02DB8018A
:104B7000CE010995009731F40884D985C02DF0CF76
:104B800080E090E0DF91CF911F910F9108950F93F6
:104B90001F93CF93DF938B01FC01C281D3812097B8
:104BA00071F0E881F9810680F781E02DB801CE012E
:104BB0000995080F111D0884D985C02DF0CFF80183
:104BC0001082DF91CF911F910F9108950F931F9342
:104BD000CF93DF938B01FC01C281D381209771F0C9
:104BE000E881F9810190F081E02DB801CE010995AD
:104BF000811106C00884D985C02DF0CF80E001C0A6
:104C000081E0DF91CF911F910F91089580914B0723
:104C100081110DC082E08093470784E080934807AC
:104C200010924A071092490781E080934B0787E46E
:104C300097E008955058BB27AA270ED0E5C0D6D0DC
:104C400030F0DBD020F031F49F3F11F41EF4CBC0E4
:104C50000EF4E095E7FBC1C0E92FE7D080F3BA1767
:104C6000620773078407950718F071F49EF5FFC07B
:104C70000EF4E0950B2EBA2FA02D0B01B901900177
:104C80000C01CA01A0011124FF27591B99F0593FBB
:104C900050F4503E68F11A16F040A22F232F342F03
:104CA0004427585FF3CF469537952795A795F04051
:104CB0005395C9F77EF41F16BA0B620B730B840B66
:104CC000BAF09150A1F0FF0FBB1F661F771F881F1E
:104CD000C2F70EC0BA0F621F731F841F48F4879576
:104CE00077956795B795F7959E3F08F0B3CF939565
:104CF000880F08F09927EE0F97958795089504D0AF
:104D00006894B111B5C0089598D088F09F5790F07D
:104D1000B92F9927B751A0F0D1F0660F771F881FE0
:104D2000991F1AF0BA95C9F712C0B13081F09FD01F
:104D3000B1E008959CC0672F782F8827B85F39F0BD
:104D4000B93FCCF3869577956795B395D9F73EF43F
:104D500090958095709561957F4F8F4F9F4F0895E7
:104D6000E89409C097FB3EF4909580957095619505
:104D70007F4F8F4F9F4F9923A9F0F92F96E9BB27BB
:104D80009395F695879577956795B795F111F8CF37
:104D9000FAF4BB0F11F460FF1BC06F5F7F4F8F4FA2
:104DA0009F4F16C0882311F096E911C0772321F098
:104DB0009EE8872F762F05C0662371F096E8862F30
:104DC00070E060E02AF09A95660F771F881FDAF787
:104DD000880F9695879597F9089597F99F6780E8CA
:104DE00070E060E008959FEF80EC089500240A943D
:104DF0001616170618060906089500240A941216B6
:104E00001306140605060895092E0394000C11F4E8
:104E1000882352F0BB0F40F4BF2B11F460FF04C095
:104E20006F5F7F4F8F4F9F4F089557FD9058440FEE
:104E3000551F59F05F3F71F04795880F97FB991FF9
:104E400061F09F3F79F087950895121613061406B6
:104E5000551FF2CF4695F1DF08C016161706180643
:104E6000991FF1CF86957105610508940895E8941E
:104E7000BB2766277727CB0197F908950BD0C4CFBE
:104E8000B5DF28F0BADF18F0952309F0A6CFABCF35
:104E90001124EECFCADFA0F3959FD1F3950F50E018
:104EA000551F629FF001729FBB27F00DB11D639FDC
:104EB000AA27F00DB11DAA1F649F6627B00DA11D82
:104EC000661F829F2227B00DA11D621F739FB00D28
:104ED000A11D621F839FA00D611D221F749F332798
:104EE000A00D611D231F849F600D211D822F762F31
:104EF0006A2F11249F5750408AF0E1F088234AF02E
:104F0000EE0FFF1FBB1F661F771F881F9150504079
:104F1000A9F79E3F510570F060CFAACF5F3FECF339
:104F2000983EDCF3869577956795B795F795E79565
:104F30009F5FC1F7FE2B880F911D9695879597F976
:104F40000895DB018F939F930E94F827BF91AF9143
:104F5000A29F800D911DA39F900DB29F900D1124D3
:104F60000895A1E21A2EAA1BBB1BFD010DC0AA1FAA
:104F7000BB1FEE1FFF1FA217B307E407F50720F0C2
:104F8000A21BB30BE40BF50B661F771F881F991F3D
:104F90001A9469F760957095809590959B01AC0186
:104FA000BD01CF010895052E97FB1EF400940E94C9
:104FB000EA2757FD07D00E94B12707FC03D04EF423
:104FC0000C94EA2750954095309521953F4F4F4FCF
:104FD0005F4F089590958095709561957F4F8F4FA5
:104FE0009F4F0895EE0FFF1F0590F491E02D099457
:104FF0000E940328A59F900DB49F900DA49F800D43
:10500000911D11240895A29FB001B39FC001A39FD9
:10501000700D811D1124911DB29F700D811D1124F1
:10502000911D0895CF93DF938230910510F482E0B3
:1050300090E0E0915507F091560720E030E0A0E0C5
:10504000B0E0309739F14081518148175907B8F0E5
:105050004817590771F482819381109729F01396AC
:105060009C938E9312972CC090935607809355076C
:1050700027C02115310531F04217530718F0A90157
:10508000DB0101C0EF019A01BD01DF010280F38164
:10509000E02DD7CF21153105F9F0281B390B24302D
:1050A000310580F48A819B816115710521F0FB0136
:1050B0009383828304C09093560780935507FE0123
:1050C000329644C0FE01E20FF31F81939193225068
:1050D0003109398328833AC020915307309154070E
:1050E000232B41F4209102013091030130935407A6
:1050F00020935307209100013091010121153105C2
:1051000041F42DB73EB74091040150910501241B95
:10511000350BE0915307F0915407E217F307A0F421
:105120002E1B3F0B2817390778F0AC014E5F5F4FFD
:105130002417350748F04E0F5F1F509354074093D4
:1051400053078193919302C0E0E0F0E0CF01DF913B
:10515000CF910895CF93DF93009709F487C0FC01A6
:10516000329713821282C0915507D091560720972B
:1051700081F420813181280F391F8091530790914C
:1051800054078217930779F5F0935407E093530778
:105190006DC0DE0120E030E0AE17BF0750F412967C
:1051A0004D915C9113979D014115510509F1DA016B
:1051B000F3CFB383A28340815181840F951F8A1757
:1051C0009B0771F48D919C911197840F951F029606
:1051D0009183808312968D919C9113979383828300
:1051E0002115310529F4F0935607E09355073EC089
:1051F000D9011396FC93EE9312974D915D91A40FF4
:10520000B51FEA17FB0779F480819181840F951F00
:105210000296D90111969C938E9382819381139665
:105220009C938E931297E0E0F0E08A819B81009737
:1052300019F0FE01EC01F9CFCE01029628813981E7
:10524000820F931F20915307309154072817390775
:1052500069F4309729F4109256071092550702C04E
:1052600013821282D0935407C0935307DF91CF91DA
:105270000895A0E0B0E0EFE3F9E20C94602AEC01BD
:10528000CB01209719F40E941228B8C0FE01E60F46
:10529000F71F9E0122503109E217F30708F4ACC052
:1052A000D9010D911C91119706171707B8F0053019
:1052B000110508F49FC0A80144505109461757072B
:1052C00008F498C002501109061B170B01931193A3
:1052D0006D937C93CF010E94AA288CC05B01A01A19
:1052E000B10A4E01800E911EA0915507B09156074C
:1052F000612C712C60E070E0109709F449C0A8158A
:10530000B905C9F5ED90FC901197670142E0C40E14
:10531000D11CCA14DB0478F147018A189B08640188
:1053200042E0C40ED11C1296BC9012971396AC9119
:10533000B5E0CB16D10440F0B282A3839182808283
:10534000D9018D939C9309C00E5F1F4F0E0D1F1D39
:10535000F90111830083EB2DFA2F6115710531F0EE
:10536000DB011396FC93EE93129744C0F09356071B
:10537000E09355073FC06D917C91119766167706B3
:1053800008F43B01BD0112960D90BC91A02DB4CF45
:10539000609153077091540768157905E9F4681610
:1053A0007906D0F440910001509101014115510559
:1053B00041F44DB75EB76091040170910501461B41
:1053C000570BE417F507C0F4F0935407E093530725
:1053D000F901918380830EC00E9412287C010097FE
:1053E00059F0A801BE010E942E2ACE010E94AA28CF
:1053F000C70104C0CE0102C080E090E0CDB7DEB7A7
:10540000EEE00C947C2AFC0188279927E8942191EE
:105410002032E9F3293010F02E30C8F32B3241F05E
:105420002D3239F4689404C00E943E2A820F911DE7
:10543000219120532A30C0F31EF4909581959F4FFF
:105440000895FB01DC0104C08D910190801921F4C5
:1054500041505040C8F7881B990B0895FB01DC01AF
:1054600002C001900D9241505040D8F70895FB01C1
:10547000DC0101900D920020E1F708957AE0979FFA
:10548000902D879F802D910D11240895F999FECFBD
:1054900092BD81BDF89A992780B50895262FF99974
:1054A000FECF1FBA92BD81BD20BD0FB6F894FA9A07
:1054B000F99A0FBE019608952F923F924F925F92F4
:1054C0006F927F928F929F92AF92BF92CF92DF9214
:1054D000EF92FF920F931F93CF93DF93CDB7DEB779
:1054E000CA1BDB0B0FB6F894DEBF0FBECDBF09940D
:1054F0002A88398848885F846E847D848C849B8464
:10550000AA84B984C884DF80EE80FD800C811B8171
:10551000AA81B981CE0FD11D0FB6F894DEBF0FBEA0
:10552000CDBFED01089514E0C8E7D4E004C0FE014A
:105530000E94F4272296CA37D107C9F7F894FFCF03
:10554000000057078000FFFFAA02861A861A861AF3
:10555000861A861A01FFFFFFFF00E100000000002D
:105560000000C180810000007365727631204368BD
:10557000616E6E656C3A20002043616C506F733130
:105580003A20002043616C506F73323A200053611F
:1055900076656420506F736974696F6E733A20008A
:1055A0000A0900205041204C6576656C3A20004184
:1055B0007661696C61626C6520636F6D6D616E64AC
:1055C000733A5478720020303B2020202020202085
:1055D00020202020202020202020202020202D20BE
:1055E0005468697320636F6D6D616E64206C6973BC
:1055F000740020342C3C6368616E6E656C3E3B2009
:10560000202020202020202020202D2053657420C1
:105610004368616E6E656C204E756D2028312D38A3
:1056200032290020352C3C5041206C6576656C3E5B
:105630003B202020202020202020202D2053657476
:1056400020506F77657220416D70204C6576656CD7
:105650002028303D2D31383B20313D2D31323B204B
:10566000323D2D363B20333D30295B64426D5D0079
:1056700043757272656E742076616C756573005443
:1056800068697320636F6D6D616E64206973207546
:105690006E6B6E6F776E21004368616E6E656C0095
:1056A0005041204C6576656C004552524F520000C7
:1056B000000000E105EF0500000000E805F905EC39
:1056C00005736572763100000204032000080000B3
:1056D0000000650F6B0F00000000010000000200D9
:1056E0000000030000000000000020182818271800
:1056F00000000000221E691E4C1E5C1E381E491E42
:105700000D0A006E616E00696E66006F7666002E8F
:02571000000097
:00000001FF
